{
  "contractName": "BountyVault",
  "abi": [
    {
      "constant": true,
      "inputs": [
        {
          "name": "",
          "type": "address"
        }
      ],
      "name": "balances",
      "outputs": [
        {
          "name": "",
          "type": "uint256"
        }
      ],
      "payable": false,
      "stateMutability": "view",
      "type": "function",
      "signature": "0x27e235e3"
    },
    {
      "constant": true,
      "inputs": [],
      "name": "allocatedTotal",
      "outputs": [
        {
          "name": "",
          "type": "uint256"
        }
      ],
      "payable": false,
      "stateMutability": "view",
      "type": "function",
      "signature": "0x31649233"
    },
    {
      "constant": true,
      "inputs": [],
      "name": "tokenContract",
      "outputs": [
        {
          "name": "",
          "type": "address"
        }
      ],
      "payable": false,
      "stateMutability": "view",
      "type": "function",
      "signature": "0x55a373d6"
    },
    {
      "constant": false,
      "inputs": [],
      "name": "renounceOwnership",
      "outputs": [],
      "payable": false,
      "stateMutability": "nonpayable",
      "type": "function",
      "signature": "0x715018a6"
    },
    {
      "constant": true,
      "inputs": [],
      "name": "owner",
      "outputs": [
        {
          "name": "",
          "type": "address"
        }
      ],
      "payable": false,
      "stateMutability": "view",
      "type": "function",
      "signature": "0x8da5cb5b"
    },
    {
      "constant": false,
      "inputs": [
        {
          "name": "_newOwner",
          "type": "address"
        }
      ],
      "name": "transferOwnership",
      "outputs": [],
      "payable": false,
      "stateMutability": "nonpayable",
      "type": "function",
      "signature": "0xf2fde38b"
    },
    {
      "inputs": [
        {
          "name": "_tokenAddress",
          "type": "address"
        }
      ],
      "payable": false,
      "stateMutability": "nonpayable",
      "type": "constructor",
      "signature": "constructor"
    },
    {
      "anonymous": false,
      "inputs": [
        {
          "indexed": true,
          "name": "previousOwner",
          "type": "address"
        }
      ],
      "name": "OwnershipRenounced",
      "type": "event",
      "signature": "0xf8df31144d9c2f0f6b59d69b8b98abd5459d07f2742c4df920b25aae33c64820"
    },
    {
      "anonymous": false,
      "inputs": [
        {
          "indexed": true,
          "name": "previousOwner",
          "type": "address"
        },
        {
          "indexed": true,
          "name": "newOwner",
          "type": "address"
        }
      ],
      "name": "OwnershipTransferred",
      "type": "event",
      "signature": "0x8be0079c531659141344cd1fd0a4f28419497f9722a3daafe3b4186f6b6457e0"
    },
    {
      "constant": false,
      "inputs": [],
      "name": "withdrawTokens",
      "outputs": [],
      "payable": false,
      "stateMutability": "nonpayable",
      "type": "function",
      "signature": "0x8d8f2adb"
    },
    {
      "constant": false,
      "inputs": [
        {
          "name": "_recipients",
          "type": "address[]"
        },
        {
          "name": "_amounts",
          "type": "uint256[]"
        }
      ],
      "name": "allocateTokens",
      "outputs": [],
      "payable": false,
      "stateMutability": "nonpayable",
      "type": "function",
      "signature": "0xa7368afb"
    }
  ],
  "bytecode": "0x608060405234801561001057600080fd5b50604051602080610664833981016040525160008054600160a060020a0319908116331790915560018054600160a060020a03909316929091169190911790556106058061005f6000396000f30060806040526004361061008d5763ffffffff7c010000000000000000000000000000000000000000000000000000000060003504166327e235e3811461009257806331649233146100c557806355a373d6146100da578063715018a61461010b5780638d8f2adb146101225780638da5cb5b14610137578063a7368afb1461014c578063f2fde38b146101da575b600080fd5b34801561009e57600080fd5b506100b3600160a060020a03600435166101fb565b60408051918252519081900360200190f35b3480156100d157600080fd5b506100b361020d565b3480156100e657600080fd5b506100ef610213565b60408051600160a060020a039092168252519081900360200190f35b34801561011757600080fd5b50610120610222565b005b34801561012e57600080fd5b5061012061028e565b34801561014357600080fd5b506100ef610426565b34801561015857600080fd5b506040805160206004803580820135838102808601850190965280855261012095369593946024949385019291829185019084908082843750506040805187358901803560208181028481018201909552818452989b9a9989019892975090820195509350839250850190849080828437509497506104359650505050505050565b3480156101e657600080fd5b50610120600160a060020a0360043516610526565b60036020526000908152604090205481565b60025481565b600154600160a060020a031681565b600054600160a060020a0316331461023957600080fd5b60008054604051600160a060020a03909116917ff8df31144d9c2f0f6b59d69b8b98abd5459d07f2742c4df920b25aae33c6482091a26000805473ffffffffffffffffffffffffffffffffffffffff19169055565b3360009081526003602052604081205490811161030c57604080517f08c379a000000000000000000000000000000000000000000000000000000000815260206004820152601760248201527f596f752068617665206e6f20746f6b656e73206c656674000000000000000000604482015290519081900360640190fd5b33600081815260036020908152604080832083905560015481517fa9059cbb0000000000000000000000000000000000000000000000000000000081526004810195909552602485018690529051600160a060020a039091169363a9059cbb9360448083019493928390030190829087803b15801561038a57600080fd5b505af115801561039e573d6000803e3d6000fd5b505050506040513d60208110156103b457600080fd5b5051151561042357604080517f08c379a000000000000000000000000000000000000000000000000000000000815260206004820152601560248201527f546f6b656e207472616e73666572206661696c65640000000000000000000000604482015290519081900360640190fd5b50565b600054600160a060020a031681565b60008054600160a060020a0316331461044d57600080fd5b5060005b8251811015610521576104b6828281518110151561046b57fe5b9060200190602002015160036000868581518110151561048757fe5b6020908102909101810151600160a060020a03168252810191909152604001600020549063ffffffff61054616565b6003600085848151811015156104c857fe5b6020908102909101810151600160a060020a03168252810191909152604001600020558151610516908390839081106104fd57fe5b602090810290910101516002549063ffffffff61054616565b600255600101610451565b505050565b600054600160a060020a0316331461053d57600080fd5b6104238161055c565b60008282018381101561055557fe5b9392505050565b600160a060020a038116151561057157600080fd5b60008054604051600160a060020a03808516939216917f8be0079c531659141344cd1fd0a4f28419497f9722a3daafe3b4186f6b6457e091a36000805473ffffffffffffffffffffffffffffffffffffffff1916600160a060020a03929092169190911790555600a165627a7a72305820a544c66c7d4ae9d1a719bb284ee8d427f9a310592145f4fb8772e150b15afa910029",
  "source": "pragma solidity ^0.4.21;\n\nimport \"./DTXToken.sol\";\nimport \"./external/SafeMath.sol\";\nimport \"./external/Ownable.sol\";\n\n\ncontract BountyVault is Ownable {\n\n  using SafeMath for uint256;\n\n  // the tokencontract for the DataBrokerDAO\n  DTXToken public tokenContract;\n\n  uint256 public allocatedTotal;\n\n  // the list of addresses and how much they have earned.\n  mapping(address => uint256) public balances;\n\n  /// @dev the constructor\n  constructor(\n    address _tokenAddress\n  ) public {\n    tokenContract = DTXToken(_tokenAddress);\n  }\n\n  /// @dev Withdraws the tokens\n  function withdrawTokens() public {\n    uint256 amount = balances[msg.sender];\n    require(amount > 0, \"You have no tokens left\");\n    balances[msg.sender] = 0;\n    require(tokenContract.transfer(msg.sender, amount), \"Token transfer failed\");\n  }\n\n  /// @dev utility function to allow the owner to allocate tokens\n  function allocateTokens(address[] _recipients, uint256[] _amounts) public onlyOwner {\n    for (uint256 i = 0; i < _recipients.length; i++) {\n      balances[_recipients[i]] = balances[_recipients[i]].add(_amounts[i]);\n      allocatedTotal = allocatedTotal.add(_amounts[i]);\n    }\n  }\n}\n",
  "sourcePath": "/Users/roderik/Development/dtx-crowdsale-contracts/contracts/BountyVault.sol",
  "compiler": {
    "name": "solc",
    "version": "0.4.25+commit.59dbf8f1.Emscripten.clang"
  },
  "schemaVersion": "3.0.1",
  "updatedAt": "2019-01-07T21:08:34.905Z",
  "devdoc": {
    "methods": {
      "allocateTokens(address[],uint256[])": {
        "details": "utility function to allow the owner to allocate tokens"
      },
      "renounceOwnership()": {
        "details": "Allows the current owner to relinquish control of the contract."
      },
      "transferOwnership(address)": {
        "details": "Allows the current owner to transfer control of the contract to a newOwner.",
        "params": {
          "_newOwner": "The address to transfer ownership to."
        }
      },
      "withdrawTokens()": {
        "details": "Withdraws the tokens"
      }
    }
  },
  "userdoc": {
    "methods": {
      "renounceOwnership()": {
        "notice": "Renouncing to ownership will leave the contract without an owner. It will not be possible to call the functions with the `onlyOwner` modifier anymore."
      }
    }
  }
}