{
  "contractName": "HomeBridge",
  "abi": [
    {
      "constant": true,
      "inputs": [],
      "name": "validatorCount",
      "outputs": [
        {
          "name": "",
          "type": "uint256"
        }
      ],
      "payable": false,
      "stateMutability": "view",
      "type": "function"
    },
    {
      "constant": false,
      "inputs": [
        {
          "name": "_validator",
          "type": "address"
        }
      ],
      "name": "removeValidator",
      "outputs": [],
      "payable": false,
      "stateMutability": "nonpayable",
      "type": "function"
    },
    {
      "constant": false,
      "inputs": [
        {
          "name": "_validator",
          "type": "address"
        }
      ],
      "name": "addValidator",
      "outputs": [],
      "payable": false,
      "stateMutability": "nonpayable",
      "type": "function"
    },
    {
      "constant": false,
      "inputs": [],
      "name": "renounceOwnership",
      "outputs": [],
      "payable": false,
      "stateMutability": "nonpayable",
      "type": "function"
    },
    {
      "constant": true,
      "inputs": [],
      "name": "owner",
      "outputs": [
        {
          "name": "",
          "type": "address"
        }
      ],
      "payable": false,
      "stateMutability": "view",
      "type": "function"
    },
    {
      "constant": true,
      "inputs": [],
      "name": "requiredValidators",
      "outputs": [
        {
          "name": "",
          "type": "uint8"
        }
      ],
      "payable": false,
      "stateMutability": "view",
      "type": "function"
    },
    {
      "constant": false,
      "inputs": [
        {
          "name": "_requiredValidators",
          "type": "uint8"
        }
      ],
      "name": "setRequiredValidators",
      "outputs": [],
      "payable": false,
      "stateMutability": "nonpayable",
      "type": "function"
    },
    {
      "constant": false,
      "inputs": [
        {
          "name": "_newOwner",
          "type": "address"
        }
      ],
      "name": "transferOwnership",
      "outputs": [],
      "payable": false,
      "stateMutability": "nonpayable",
      "type": "function"
    },
    {
      "constant": true,
      "inputs": [
        {
          "name": "",
          "type": "address"
        }
      ],
      "name": "validators",
      "outputs": [
        {
          "name": "",
          "type": "bool"
        }
      ],
      "payable": false,
      "stateMutability": "view",
      "type": "function"
    },
    {
      "constant": true,
      "inputs": [
        {
          "name": "_validator",
          "type": "address"
        }
      ],
      "name": "isValidator",
      "outputs": [
        {
          "name": "",
          "type": "bool"
        }
      ],
      "payable": false,
      "stateMutability": "view",
      "type": "function"
    },
    {
      "inputs": [
        {
          "name": "_requiredValidators",
          "type": "uint8"
        },
        {
          "name": "_initialValidators",
          "type": "address[]"
        }
      ],
      "payable": false,
      "stateMutability": "nonpayable",
      "type": "constructor"
    },
    {
      "anonymous": false,
      "inputs": [
        {
          "indexed": true,
          "name": "_from",
          "type": "address"
        },
        {
          "indexed": false,
          "name": "_amount",
          "type": "uint256"
        },
        {
          "indexed": false,
          "name": "_mainToken",
          "type": "address"
        },
        {
          "indexed": false,
          "name": "_data",
          "type": "bytes"
        }
      ],
      "name": "DepositReceived",
      "type": "event"
    },
    {
      "anonymous": false,
      "inputs": [
        {
          "indexed": false,
          "name": "validator",
          "type": "address"
        }
      ],
      "name": "ValidatorAdded",
      "type": "event"
    },
    {
      "anonymous": false,
      "inputs": [
        {
          "indexed": false,
          "name": "validator",
          "type": "address"
        }
      ],
      "name": "ValidatorRemoved",
      "type": "event"
    },
    {
      "anonymous": false,
      "inputs": [
        {
          "indexed": true,
          "name": "previousOwner",
          "type": "address"
        }
      ],
      "name": "OwnershipRenounced",
      "type": "event"
    },
    {
      "anonymous": false,
      "inputs": [
        {
          "indexed": true,
          "name": "previousOwner",
          "type": "address"
        },
        {
          "indexed": true,
          "name": "newOwner",
          "type": "address"
        }
      ],
      "name": "OwnershipTransferred",
      "type": "event"
    },
    {
      "constant": true,
      "inputs": [
        {
          "name": "_hash",
          "type": "bytes32"
        },
        {
          "name": "_length",
          "type": "uint256"
        },
        {
          "name": "_v",
          "type": "uint8[]"
        },
        {
          "name": "_r",
          "type": "bytes32[]"
        },
        {
          "name": "_s",
          "type": "bytes32[]"
        }
      ],
      "name": "checkValidations",
      "outputs": [
        {
          "name": "",
          "type": "uint8"
        }
      ],
      "payable": false,
      "stateMutability": "view",
      "type": "function"
    },
    {
      "constant": false,
      "inputs": [
        {
          "name": "_token",
          "type": "address"
        },
        {
          "name": "_recipient",
          "type": "address"
        },
        {
          "name": "_amount",
          "type": "uint256"
        },
        {
          "name": "_withdrawblock",
          "type": "uint256"
        },
        {
          "name": "_v",
          "type": "uint8[]"
        },
        {
          "name": "_r",
          "type": "bytes32[]"
        },
        {
          "name": "_s",
          "type": "bytes32[]"
        }
      ],
      "name": "withdraw",
      "outputs": [],
      "payable": false,
      "stateMutability": "nonpayable",
      "type": "function"
    },
    {
      "constant": false,
      "inputs": [
        {
          "name": "_from",
          "type": "address"
        },
        {
          "name": "_amount",
          "type": "uint256"
        },
        {
          "name": "_token",
          "type": "address"
        },
        {
          "name": "_data",
          "type": "bytes"
        }
      ],
      "name": "receiveApproval",
      "outputs": [],
      "payable": false,
      "stateMutability": "nonpayable",
      "type": "function"
    }
  ],
  "bytecode": "0x60806040526000805460a060020a60ff02191681556001553480156200002457600080fd5b50604051620016f0380380620016f0833981016040528051602082015160008054600160a060020a03191633178155919201908290829060ff83161515620000cd57604080517f08c379a000000000000000000000000000000000000000000000000000000000815260206004820152601f60248201527f5f726571756972656456616c696461746f72732063616e6e6f74206265203000604482015290519081900360640190fd5b815160ff841611156200018d57604080517f08c379a000000000000000000000000000000000000000000000000000000000815260206004820152604e60248201527f596f75206e656564206174206c6561737420616e20657175616c20616d6f756e60448201527f74206f66205f696e697469616c56616c696461746f7273206173205f7265717560648201527f6972656456616c696461746f7273000000000000000000000000000000000000608482015290519081900360a40190fd5b5060005b8151811015620002cd57620001cd8282815181101515620001ae57fe5b90602001906020020151620002f0640100000000026401000000009004565b158015620001fe57508151600090839083908110620001e857fe5b90602001906020020151600160a060020a031614155b15156200029257604080517f08c379a000000000000000000000000000000000000000000000000000000000815260206004820152602560248201527f4e6f206475706c69636174652076616c696461746f7273206f7220656d70747960448201527f206f6e6573000000000000000000000000000000000000000000000000000000606482015290519081900360840190fd5b620002c48282815181101515620002a557fe5b9060200190602002015162000313640100000000026401000000009004565b60010162000191565b620002e183640100000000620003b8810204565b505160015550620004c5915050565b600160a060020a031660009081526002602052604090205460ff16151560011490565b600054600160a060020a031633146200032b57600080fd5b600160a060020a03811660009081526002602052604090205460ff161515600114156200035457fe5b600160a060020a038116600081815260026020908152604091829020805460ff19166001908117909155805481019055815192835290517fe366c1c0452ed8eec96861e9e54141ebff23c9ec89fe27b996b45f5ec38849879281900390910190a150565b600054600160a060020a03163314620003d057600080fd5b60015460ff821611156200049157604080517f08c379a000000000000000000000000000000000000000000000000000000000815260206004820152604d60248201527f796f752063616e6e6f7420696e6372656173652074686520726571756972656460448201527f20616d6f756e74206f662076616c696461746f72732061626f7665207468652060648201527f6578697369746e67206c69737400000000000000000000000000000000000000608482015290519081900360a40190fd5b6000805460ff909216740100000000000000000000000000000000000000000260a060020a60ff0219909216919091179055565b61121b80620004d56000396000f3006080604052600436106100c45763ffffffff7c01000000000000000000000000000000000000000000000000000000006000350416630f43a67781146100c957806340a141ff146100f05780634d238c8e14610113578063715018a614610134578063736a2684146101495780638da5cb5b1461022f5780638f4ffcb11461026057806397c875dd146102d0578063cd99b7ac146102fb578063d2ddc509146103cb578063f2fde38b146103e6578063fa52c7d814610407578063facd743b1461043c575b600080fd5b3480156100d557600080fd5b506100de61045d565b60408051918252519081900360200190f35b3480156100fc57600080fd5b50610111600160a060020a0360043516610463565b005b34801561011f57600080fd5b50610111600160a060020a0360043516610579565b34801561014057600080fd5b5061011161061c565b34801561015557600080fd5b506040805160206004608435818101358381028086018501909652808552610111958335600160a060020a0390811696602480359092169660443596606435963696919560a4959091019282919085019084908082843750506040805187358901803560208181028481018201909552818452989b9a998901989297509082019550935083925085019084908082843750506040805187358901803560208181028481018201909552818452989b9a9989019892975090820195509350839250850190849080828437509497506106889650505050505050565b34801561023b57600080fd5b50610244610c56565b60408051600160a060020a039092168252519081900360200190f35b34801561026c57600080fd5b50604080516020601f60643560048181013592830184900484028501840190955281845261011194600160a060020a03813581169560248035966044359093169536956084949201918190840183828082843750949750610c659650505050505050565b3480156102dc57600080fd5b506102e5610e96565b6040805160ff9092168252519081900360200190f35b34801561030757600080fd5b5060408051602060046044358181013583810280860185019096528085526102e5958335956024803596369695606495939492019291829185019084908082843750506040805187358901803560208181028481018201909552818452989b9a998901989297509082019550935083925085019084908082843750506040805187358901803560208181028481018201909552818452989b9a998901989297509082019550935083925085019084908082843750949750610eb79650505050505050565b3480156103d757600080fd5b5061011160ff60043516611015565b3480156103f257600080fd5b50610111600160a060020a0360043516611117565b34801561041357600080fd5b50610428600160a060020a036004351661113a565b604080519115158252519081900360200190f35b34801561044857600080fd5b50610428600160a060020a036004351661114f565b60015481565b600054600160a060020a0316331461047a57600080fd5b6000546001547401000000000000000000000000000000000000000090910460ff1610610517576040805160e560020a62461bcd02815260206004820152603660248201527f796f752063616e6e6f742072656d6f76652076616c696461746f72732062656c60448201527f6f7720746865207265717569726564206e756d62657200000000000000000000606482015290519081900360840190fd5b600160a060020a038116600081815260026020908152604091829020805460ff1916905560018054600019019055815192835290517fe1434e25d6611e0db941968fdc97811c982ac1602e951637d206f5fdda9dd8f19281900390910190a150565b600054600160a060020a0316331461059057600080fd5b600160a060020a03811660009081526002602052604090205460ff161515600114156105b857fe5b600160a060020a038116600081815260026020908152604091829020805460ff19166001908117909155805481019055815192835290517fe366c1c0452ed8eec96861e9e54141ebff23c9ec89fe27b996b45f5ec38849879281900390910190a150565b600054600160a060020a0316331461063357600080fd5b60008054604051600160a060020a03909116917ff8df31144d9c2f0f6b59d69b8b98abd5459d07f2742c4df920b25aae33c6482091a26000805473ffffffffffffffffffffffffffffffffffffffff19169055565b6000806002898989896040516020018085600160a060020a0316600160a060020a03166c0100000000000000000000000002815260140184600160a060020a0316600160a060020a03166c010000000000000000000000000281526014018381526020018281526020019450505050506040516020818303038152906040526040518082805190602001908083835b602083106107365780518252601f199092019160209182019101610717565b51815160209384036101000a600019018019909216911617905260405191909301945091925050808303816000865af1158015610777573d6000803e3d6000fd5b5050506040513d602081101561078c57600080fd5b505160008181526003602052604090205490925060ff161561081e576040805160e560020a62461bcd02815260206004820152602960248201527f74686520686173682073686f756c64206e6f742068617665206265656e20757360448201527f6564206265666f72650000000000000000000000000000000000000000000000606482015290519081900360840190fd5b6000828152600360205260409020805460ff19166001179055600160a060020a0389161515610897576040805160e560020a62461bcd02815260206004820152601b60248201527f74686520746f6b656e2073686f756c6420626520646566696e65640000000000604482015290519081900360640190fd5b600160a060020a03881615156108f7576040805160e560020a62461bcd02815260206004820152601f60248201527f74686520726563697069656e742073686f756c6420626520646566696e656400604482015290519081900360640190fd5b6000871015610976576040805160e560020a62461bcd02815260206004820152602e60248201527f74686520616d6f756e742073686f756c6420626520626967676572207468616e60448201527f203020616e6420646566696e6564000000000000000000000000000000000000606482015290519081900360840190fd5b84516000106109f5576040805160e560020a62461bcd02815260206004820152602560248201527f746865206c656e677468206f6620762073686f756c64206265206d6f7265207460448201527f68616e2030000000000000000000000000000000000000000000000000000000606482015290519081900360840190fd5b8351855114610a74576040805160e560020a62461bcd02815260206004820152602960248201527f746865206c656e677468206f66207620616e642072206e65656420746f20626560448201527f207468652073616d650000000000000000000000000000000000000000000000606482015290519081900360840190fd5b8251855114610af3576040805160e560020a62461bcd02815260206004820152602960248201527f746865206c656e677468206f66207620616e642073206e65656420746f20626560448201527f207468652073616d650000000000000000000000000000000000000000000000606482015290519081900360840190fd5b610b01828651878787610eb7565b60005490915060ff7401000000000000000000000000000000000000000090910481169082161015610ba3576040805160e560020a62461bcd02815260206004820152603260248201527f796f75206e656564206d6f72652076616c69646174696f6e73207468616e207260448201527f657175697265642076616c696461746f72730000000000000000000000000000606482015290519081900360840190fd5b88600160a060020a031663a9059cbb89896040518363ffffffff167c01000000000000000000000000000000000000000000000000000000000281526004018083600160a060020a0316600160a060020a0316815260200182815260200192505050602060405180830381600087803b158015610c1f57600080fd5b505af1158015610c33573d6000803e3d6000fd5b505050506040513d6020811015610c4957600080fd5b5050505050505050505050565b600054600160a060020a031681565b600160a060020a0384161515610c7757fe5b600160a060020a0382161515610c8957fe5b60008311610c9357fe5b604080517fdd62ed3e000000000000000000000000000000000000000000000000000000008152600160a060020a0386811660048301523060248301529151859285169163dd62ed3e9160448083019260209291908290030181600087803b158015610cfe57600080fd5b505af1158015610d12573d6000803e3d6000fd5b505050506040513d6020811015610d2857600080fd5b50511015610d3557600080fd5b604080517f23b872dd000000000000000000000000000000000000000000000000000000008152600160a060020a038681166004830152306024830152604482018690529151918416916323b872dd916064808201926020929091908290030181600087803b158015610da757600080fd5b505af1158015610dbb573d6000803e3d6000fd5b505050506040513d6020811015610dd157600080fd5b505060408051848152600160a060020a0384811660208381019190915260609383018481528551948401949094528451918816937f8ea3f675ef0a8a2eacc970ac90ee14eb07990f55c8c64ec8774f14b66ecfde619388938893889391608084019185019080838360005b83811015610e54578181015183820152602001610e3c565b50505050905090810190601f168015610e815780820380516001836020036101000a031916815260200191505b5094505050505060405180910390a250505050565b60005474010000000000000000000000000000000000000000900460ff1681565b60008080805b87821015611008576001898884815181101515610ed657fe5b906020019060200201518885815181101515610eee57fe5b906020019060200201518886815181101515610f0657fe5b60209081029091018101516040805160008082528185018084529790975260ff9095168582015260608501939093526080840152905160a0808401949293601f19830193908390039091019190865af1158015610f67573d6000803e3d6000fd5b505050602060405103519050610f7c8161114f565b1515610ff8576040805160e560020a62461bcd02815260206004820152602860248201527f5468652076616c696461746f722061646472657373206973206e6f742061207660448201527f616c696461746f72000000000000000000000000000000000000000000000000606482015290519081900360840190fd5b6001928301929190910190610ebd565b5090979650505050505050565b600054600160a060020a0316331461102c57600080fd5b60015460ff821611156110d5576040805160e560020a62461bcd02815260206004820152604d60248201527f796f752063616e6e6f7420696e6372656173652074686520726571756972656460448201527f20616d6f756e74206f662076616c696461746f72732061626f7665207468652060648201527f6578697369746e67206c69737400000000000000000000000000000000000000608482015290519081900360a40190fd5b6000805460ff909216740100000000000000000000000000000000000000000274ff000000000000000000000000000000000000000019909216919091179055565b600054600160a060020a0316331461112e57600080fd5b61113781611172565b50565b60026020526000908152604090205460ff1681565b600160a060020a031660009081526002602052604090205460ff16151560011490565b600160a060020a038116151561118757600080fd5b60008054604051600160a060020a03808516939216917f8be0079c531659141344cd1fd0a4f28419497f9722a3daafe3b4186f6b6457e091a36000805473ffffffffffffffffffffffffffffffffffffffff1916600160a060020a03929092169190911790555600a165627a7a723058207fa44cac7348867a4c78a38b13476fa95019d33561ee2fd4add9ecf8efb4e4570029",
  "source": "pragma solidity ^0.4.24;\n\nimport \"openzeppelin-solidity/contracts/ownership/Ownable.sol\";\nimport \"openzeppelin-solidity/contracts/math/SafeMath.sol\";\nimport \"../external/MiniMeToken.sol\";\n\nimport \"./Validatable.sol\";\n\n\ncontract HomeBridge is Validatable, ApproveAndCallFallBack {\n  using SafeMath for uint256;\n\n  mapping(bytes32=>bool) usedHashes;\n\n  event DepositReceived(address indexed _from, uint256 _amount, address _mainToken, bytes _data);\n\n  constructor(uint8 _requiredValidators,address[] _initialValidators) Validatable(_requiredValidators,_initialValidators) public {\n\n  }\n\n  function checkValidations(\n    bytes32 _hash,\n    uint256 _length,\n    uint8[] _v,\n    bytes32[] _r,\n    bytes32[] _s) public view returns(uint8)\n    {\n    uint8 approvals = 0;\n    for (uint i = 0; i < _length ; i++) {\n      address validator = ecrecover(\n        _hash,\n        _v[i],\n        _r[i],\n        _s[i]\n      );\n      require(isValidator(validator), \"The validator address is not a validator\");\n      approvals++;\n    }\n    return approvals;\n  }\n\n  function withdraw(\n    address _token,\n    address _recipient,\n    uint256 _amount,\n    uint256 _withdrawblock,\n    uint8[] _v,\n    bytes32[] _r,\n    bytes32[] _s) public\n    {\n\n    bytes32 hash = sha256(\n      abi.encodePacked(\n        _token,\n        _recipient,\n        _amount,\n        _withdrawblock\n      )\n    );\n\n    // the hash should not have been used before\n    require(usedHashes[hash] == false, \"the hash should not have been used before\");\n\n    // mark hash as used\n    usedHashes[hash] = true;\n\n    require(_token != 0x0, \"the token should be defined\");\n\n    require(_recipient != 0x0, \"the recipient should be defined\");\n\n    require(_amount >= 0, \"the amount should be bigger than 0 and defined\");\n\n    // the time-lock should have passed\n    // require(_withdrawblock <= block.number);\n\n    // verify the provided signatures\n    require(_v.length > 0, \"the length of v should be more than 0\");\n    require(_v.length == _r.length, \"the length of v and r need to be the same\");\n    require(_v.length == _s.length, \"the length of v and s need to be the same\");\n\n    // verify if the threshold of required signatures is met\n    uint8 validations = checkValidations(\n      hash,\n      _v.length,\n      _v,\n      _r,\n      _s\n    );\n    require(validations >= requiredValidators, \"you need more validations than required validators\");\n    // ERC-20 transfer\n    MiniMeToken(_token).transfer(_recipient, _amount);\n  }\n\n  function receiveApproval(\n    address _from,\n    uint256 _amount,\n    address _token,\n    bytes _data) public\n    {\n\t\tassert(_from != 0x0);\n\t\tassert(_token != 0x0);\n\t\tassert(_amount > 0);\n\n    require(MiniMeToken(_token).allowance(_from, address(this)) >= _amount);\n\t\tMiniMeToken(_token).transferFrom(_from, address(this), _amount);\n\n\t\temit DepositReceived(_from, _amount, _token, _data);\n\t}\n\n}\n\n",
  "sourcePath": "/Users/roderik/Development/dtx-crowdsale-contracts/contracts/bridge/HomeBridge.sol",
  "compiler": {
    "name": "solc",
    "version": "0.4.25+commit.59dbf8f1.Emscripten.clang"
  },
  "schemaVersion": "3.0.0-beta.0",
  "updatedAt": "2018-10-04T19:49:13.491Z"
}