{
  "contractName": "TokenSale",
  "abi": [
    {
      "constant": true,
      "inputs": [],
      "name": "lockedTokens",
      "outputs": [
        {
          "name": "",
          "type": "uint256"
        }
      ],
      "payable": false,
      "stateMutability": "view",
      "type": "function",
      "signature": "0x0eb34740"
    },
    {
      "constant": true,
      "inputs": [],
      "name": "TOKENS_PER_ETHER_EARLYSALE",
      "outputs": [
        {
          "name": "",
          "type": "uint256"
        }
      ],
      "payable": false,
      "stateMutability": "view",
      "type": "function",
      "signature": "0x0f98c91a"
    },
    {
      "constant": true,
      "inputs": [],
      "name": "endPresaleTime",
      "outputs": [
        {
          "name": "",
          "type": "uint256"
        }
      ],
      "payable": false,
      "stateMutability": "view",
      "type": "function",
      "signature": "0x1264299a"
    },
    {
      "constant": true,
      "inputs": [],
      "name": "totalVested",
      "outputs": [
        {
          "name": "",
          "type": "uint256"
        }
      ],
      "payable": false,
      "stateMutability": "view",
      "type": "function",
      "signature": "0x199cbc54"
    },
    {
      "constant": true,
      "inputs": [],
      "name": "endTime",
      "outputs": [
        {
          "name": "",
          "type": "uint256"
        }
      ],
      "payable": false,
      "stateMutability": "view",
      "type": "function",
      "signature": "0x3197cbb6"
    },
    {
      "constant": true,
      "inputs": [],
      "name": "HARD_CAP",
      "outputs": [
        {
          "name": "",
          "type": "uint256"
        }
      ],
      "payable": false,
      "stateMutability": "view",
      "type": "function",
      "signature": "0x3a03171c"
    },
    {
      "constant": false,
      "inputs": [
        {
          "name": "_newController",
          "type": "address"
        }
      ],
      "name": "changeController",
      "outputs": [],
      "payable": false,
      "stateMutability": "nonpayable",
      "type": "function",
      "signature": "0x3cebb823"
    },
    {
      "constant": true,
      "inputs": [],
      "name": "vaultAddress",
      "outputs": [
        {
          "name": "",
          "type": "address"
        }
      ],
      "payable": false,
      "stateMutability": "view",
      "type": "function",
      "signature": "0x430bf08a"
    },
    {
      "constant": true,
      "inputs": [],
      "name": "TOKENS_PER_ETHER_PRESALE",
      "outputs": [
        {
          "name": "",
          "type": "uint256"
        }
      ],
      "payable": false,
      "stateMutability": "view",
      "type": "function",
      "signature": "0x50d5914a"
    },
    {
      "constant": true,
      "inputs": [
        {
          "name": "",
          "type": "address"
        }
      ],
      "name": "vestedAllowances",
      "outputs": [
        {
          "name": "amount",
          "type": "uint256"
        },
        {
          "name": "cliff",
          "type": "uint256"
        }
      ],
      "payable": false,
      "stateMutability": "view",
      "type": "function",
      "signature": "0x54b1e11c"
    },
    {
      "constant": true,
      "inputs": [],
      "name": "tokenContract",
      "outputs": [
        {
          "name": "",
          "type": "address"
        }
      ],
      "payable": false,
      "stateMutability": "view",
      "type": "function",
      "signature": "0x55a373d6"
    },
    {
      "constant": true,
      "inputs": [],
      "name": "paused",
      "outputs": [
        {
          "name": "",
          "type": "bool"
        }
      ],
      "payable": false,
      "stateMutability": "view",
      "type": "function",
      "signature": "0x5c975abb"
    },
    {
      "constant": true,
      "inputs": [],
      "name": "totalIssuedEarlySale",
      "outputs": [
        {
          "name": "",
          "type": "uint256"
        }
      ],
      "payable": false,
      "stateMutability": "view",
      "type": "function",
      "signature": "0x63036f86"
    },
    {
      "constant": true,
      "inputs": [],
      "name": "TOKENS_PER_ETHER",
      "outputs": [
        {
          "name": "",
          "type": "uint256"
        }
      ],
      "payable": false,
      "stateMutability": "view",
      "type": "function",
      "signature": "0x6b4a6ded"
    },
    {
      "constant": true,
      "inputs": [],
      "name": "startTime",
      "outputs": [
        {
          "name": "",
          "type": "uint256"
        }
      ],
      "payable": false,
      "stateMutability": "view",
      "type": "function",
      "signature": "0x78e97925"
    },
    {
      "constant": true,
      "inputs": [],
      "name": "transferable",
      "outputs": [
        {
          "name": "",
          "type": "bool"
        }
      ],
      "payable": false,
      "stateMutability": "view",
      "type": "function",
      "signature": "0x92ff0d31"
    },
    {
      "constant": true,
      "inputs": [],
      "name": "finalized",
      "outputs": [
        {
          "name": "",
          "type": "bool"
        }
      ],
      "payable": false,
      "stateMutability": "view",
      "type": "function",
      "signature": "0xb3f05b97"
    },
    {
      "constant": true,
      "inputs": [],
      "name": "startPresaleTime",
      "outputs": [
        {
          "name": "",
          "type": "uint256"
        }
      ],
      "payable": false,
      "stateMutability": "view",
      "type": "function",
      "signature": "0xc74b1e01"
    },
    {
      "constant": true,
      "inputs": [],
      "name": "TOKENS_PER_ETHER_DAY_ONE",
      "outputs": [
        {
          "name": "",
          "type": "uint256"
        }
      ],
      "payable": false,
      "stateMutability": "view",
      "type": "function",
      "signature": "0xee4aa327"
    },
    {
      "constant": true,
      "inputs": [],
      "name": "MAX_TOKENS",
      "outputs": [
        {
          "name": "",
          "type": "uint256"
        }
      ],
      "payable": false,
      "stateMutability": "view",
      "type": "function",
      "signature": "0xf47c84c5"
    },
    {
      "constant": true,
      "inputs": [],
      "name": "totalIssued",
      "outputs": [
        {
          "name": "",
          "type": "uint256"
        }
      ],
      "payable": false,
      "stateMutability": "view",
      "type": "function",
      "signature": "0xf5be3193"
    },
    {
      "constant": true,
      "inputs": [],
      "name": "controller",
      "outputs": [
        {
          "name": "",
          "type": "address"
        }
      ],
      "payable": false,
      "stateMutability": "view",
      "type": "function",
      "signature": "0xf77c4791"
    },
    {
      "constant": true,
      "inputs": [],
      "name": "endDayOneTime",
      "outputs": [
        {
          "name": "",
          "type": "uint256"
        }
      ],
      "payable": false,
      "stateMutability": "view",
      "type": "function",
      "signature": "0xf942be1c"
    },
    {
      "constant": true,
      "inputs": [],
      "name": "startDayOneTime",
      "outputs": [
        {
          "name": "",
          "type": "uint256"
        }
      ],
      "payable": false,
      "stateMutability": "view",
      "type": "function",
      "signature": "0xfa848fb0"
    },
    {
      "inputs": [
        {
          "name": "_startPresaleTime",
          "type": "uint256"
        },
        {
          "name": "_endPresaleTime",
          "type": "uint256"
        },
        {
          "name": "_startDayOneTime",
          "type": "uint256"
        },
        {
          "name": "_endDayOneTime",
          "type": "uint256"
        },
        {
          "name": "_startTime",
          "type": "uint256"
        },
        {
          "name": "_endTime",
          "type": "uint256"
        },
        {
          "name": "_vaultAddress",
          "type": "address"
        },
        {
          "name": "_tokenAddress",
          "type": "address"
        }
      ],
      "payable": false,
      "stateMutability": "nonpayable",
      "type": "constructor",
      "signature": "constructor"
    },
    {
      "payable": true,
      "stateMutability": "payable",
      "type": "fallback"
    },
    {
      "constant": false,
      "inputs": [
        {
          "name": "_owner",
          "type": "address"
        }
      ],
      "name": "proxyPayment",
      "outputs": [
        {
          "name": "success",
          "type": "bool"
        }
      ],
      "payable": true,
      "stateMutability": "payable",
      "type": "function",
      "signature": "0xf48c3054"
    },
    {
      "constant": false,
      "inputs": [
        {
          "name": "_from",
          "type": "address"
        },
        {
          "name": "",
          "type": "address"
        },
        {
          "name": "",
          "type": "uint256"
        }
      ],
      "name": "onTransfer",
      "outputs": [
        {
          "name": "success",
          "type": "bool"
        }
      ],
      "payable": false,
      "stateMutability": "nonpayable",
      "type": "function",
      "signature": "0x4a393149"
    },
    {
      "constant": false,
      "inputs": [
        {
          "name": "_owner",
          "type": "address"
        },
        {
          "name": "",
          "type": "address"
        },
        {
          "name": "",
          "type": "uint256"
        }
      ],
      "name": "onApprove",
      "outputs": [
        {
          "name": "success",
          "type": "bool"
        }
      ],
      "payable": false,
      "stateMutability": "nonpayable",
      "type": "function",
      "signature": "0xda682aeb"
    },
    {
      "constant": false,
      "inputs": [],
      "name": "makeTransferable",
      "outputs": [],
      "payable": false,
      "stateMutability": "nonpayable",
      "type": "function",
      "signature": "0x696fd68c"
    },
    {
      "constant": false,
      "inputs": [
        {
          "name": "_startPresaleTime",
          "type": "uint256"
        },
        {
          "name": "_endPresaleTime",
          "type": "uint256"
        },
        {
          "name": "_startDayOneTime",
          "type": "uint256"
        },
        {
          "name": "_endDayOneTime",
          "type": "uint256"
        },
        {
          "name": "_startTime",
          "type": "uint256"
        },
        {
          "name": "_endTime",
          "type": "uint256"
        }
      ],
      "name": "updateDates",
      "outputs": [],
      "payable": false,
      "stateMutability": "nonpayable",
      "type": "function",
      "signature": "0x064292a8"
    },
    {
      "constant": false,
      "inputs": [
        {
          "name": "_recipients",
          "type": "address[]"
        },
        {
          "name": "_ethAmounts",
          "type": "uint256[]"
        }
      ],
      "name": "handleEarlySaleBuyers",
      "outputs": [],
      "payable": false,
      "stateMutability": "nonpayable",
      "type": "function",
      "signature": "0x7a38012e"
    },
    {
      "constant": false,
      "inputs": [
        {
          "name": "_recipients",
          "type": "address[]"
        },
        {
          "name": "_free",
          "type": "uint256[]"
        },
        {
          "name": "_locked",
          "type": "uint256[]"
        },
        {
          "name": "_cliffs",
          "type": "uint256[]"
        }
      ],
      "name": "handleExternalBuyers",
      "outputs": [],
      "payable": false,
      "stateMutability": "nonpayable",
      "type": "function",
      "signature": "0x8a426b1b"
    },
    {
      "constant": false,
      "inputs": [
        {
          "name": "_newController",
          "type": "address"
        }
      ],
      "name": "changeTokenController",
      "outputs": [],
      "payable": false,
      "stateMutability": "nonpayable",
      "type": "function",
      "signature": "0xd6c8976b"
    },
    {
      "constant": false,
      "inputs": [],
      "name": "finalizeSale",
      "outputs": [],
      "payable": false,
      "stateMutability": "nonpayable",
      "type": "function",
      "signature": "0x58a687ec"
    },
    {
      "constant": false,
      "inputs": [
        {
          "name": "_owner",
          "type": "address"
        }
      ],
      "name": "claimLockedTokens",
      "outputs": [],
      "payable": false,
      "stateMutability": "nonpayable",
      "type": "function",
      "signature": "0x1adadda8"
    },
    {
      "constant": false,
      "inputs": [],
      "name": "pauseContribution",
      "outputs": [],
      "payable": false,
      "stateMutability": "nonpayable",
      "type": "function",
      "signature": "0x4b8adcf7"
    },
    {
      "constant": false,
      "inputs": [],
      "name": "resumeContribution",
      "outputs": [],
      "payable": false,
      "stateMutability": "nonpayable",
      "type": "function",
      "signature": "0xb681f9f6"
    }
  ],
  "bytecode": "0x60806040523480156200001157600080fd5b50604051610100806200195183398101604090815281516020830151918301516060840151608085015160a086015160c087015160e09097015160008054600160a060020a0319163317905594969394929391929091904288116200007557600080fd5b4287116200008257600080fd5b4286116200008f57600080fd5b4285116200009c57600080fd5b428411620000a957600080fd5b428311620000b657600080fd5b87871015620000c457600080fd5b85851015620000d257600080fd5b83831015620000e057600080fd5b84841015620000ee57600080fd5b86861015620000fc57600080fd5b600188905560028790556003869055600485905560058490556006839055600160a060020a03821615156200013057600080fd5b600c8054600160a060020a031916600160a060020a0384811691909117909155811615156200015e57600080fd5b600b8054600160a060020a031916600160a060020a038316179055620001ba601e620001a56aba1d9a70c21cda810000006064640100000000620001de8102620016cd1704565b9064010000000062001676620001fb82021704565b6007555050600c805460a060020a62ffffff02191690555062000231945050505050565b6000808284811515620001ed57fe5b0490508091505b5092915050565b600080831515620002105760009150620001f4565b508282028284828115156200022157fe5b04146200022a57fe5b9392505050565b61171080620002416000396000f3006080604052600436106101a85763ffffffff60e060020a600035041663064292a881146101dc5780630eb34740146102055780630f98c91a1461022c5780631264299a14610241578063199cbc54146102565780631adadda81461026b5780633197cbb61461028c5780633a03171c146102a15780633cebb823146102b6578063430bf08a146102d75780634a393149146103085780634b8adcf71461034657806350d5914a1461035b57806354b1e11c1461037057806355a373d6146103aa57806358a687ec146103bf5780635c975abb146103d457806363036f86146103e9578063696fd68c146103fe5780636b4a6ded1461041357806378e97925146104285780637a38012e1461043d5780638a426b1b146104cb57806392ff0d31146105cb578063b3f05b97146105e0578063b681f9f6146105f5578063c74b1e011461060a578063d6c8976b1461061f578063da682aeb14610308578063ee4aa32714610640578063f47c84c514610655578063f48c30541461066a578063f5be31931461067e578063f77c479114610693578063f942be1c146106a8578063fa848fb0146106bd575b600c5474010000000000000000000000000000000000000000900460ff16156101d057600080fd5b6101d9336106d2565b50005b3480156101e857600080fd5b5061020360043560243560443560643560843560a4356109bc565b005b34801561021157600080fd5b5061021a6109f0565b60408051918252519081900360200190f35b34801561023857600080fd5b5061021a6109f6565b34801561024d57600080fd5b5061021a6109fc565b34801561026257600080fd5b5061021a610a02565b34801561027757600080fd5b50610203600160a060020a0360043516610a08565b34801561029857600080fd5b5061021a610c68565b3480156102ad57600080fd5b5061021a610c6e565b3480156102c257600080fd5b50610203600160a060020a0360043516610c7d565b3480156102e357600080fd5b506102ec610cc3565b60408051600160a060020a039092168252519081900360200190f35b34801561031457600080fd5b50610332600160a060020a0360043581169060243516604435610cd2565b604080519115158252519081900360200190f35b34801561035257600080fd5b50610203610d2d565b34801561036757600080fd5b5061021a610d7b565b34801561037c57600080fd5b50610391600160a060020a0360043516610d81565b6040805192835260208301919091528051918290030190f35b3480156103b657600080fd5b506102ec610d9a565b3480156103cb57600080fd5b50610203610da9565b3480156103e057600080fd5b50610332611003565b3480156103f557600080fd5b5061021a611024565b34801561040a57600080fd5b5061020361102a565b34801561041f57600080fd5b5061021a61107c565b34801561043457600080fd5b5061021a611082565b34801561044957600080fd5b506040805160206004803580820135838102808601850190965280855261020395369593946024949385019291829185019084908082843750506040805187358901803560208181028481018201909552818452989b9a9989019892975090820195509350839250850190849080828437509497506110889650505050505050565b3480156104d757600080fd5b506040805160206004803580820135838102808601850190965280855261020395369593946024949385019291829185019084908082843750506040805187358901803560208181028481018201909552818452989b9a998901989297509082019550935083925085019084908082843750506040805187358901803560208181028481018201909552818452989b9a998901989297509082019550935083925085019084908082843750506040805187358901803560208181028481018201909552818452989b9a9989019892975090820195509350839250850190849080828437509497506111d29650505050505050565b3480156105d757600080fd5b50610332611504565b3480156105ec57600080fd5b50610332611527565b34801561060157600080fd5b50610203611537565b34801561061657600080fd5b5061021a61156e565b34801561062b57600080fd5b50610203600160a060020a0360043516611574565b34801561064c57600080fd5b5061021a611606565b34801561066157600080fd5b5061021a61160c565b610332600160a060020a036004351661161b565b34801561068a57600080fd5b5061021a611655565b34801561069f57600080fd5b506102ec61165b565b3480156106b457600080fd5b5061021a61166a565b3480156106c957600080fd5b5061021a611670565b600080808080803481106106e557600080fd5b600b54604080517ff77c479100000000000000000000000000000000000000000000000000000000815290513092600160a060020a03169163f77c47919160048083019260209291908290030181600087803b15801561074457600080fd5b505af1158015610758573d6000803e3d6000fd5b505050506040513d602081101561076e57600080fd5b5051600160a060020a03161461078357600080fd5b426001541115801561079757504260025410155b945042600354111580156107ad57504260045410155b935042600554111580156107c357504260065410155b925084806107ce5750835b806107d65750825b15156107e157600080fd5b84156107fc57678ac7230489e800003410156107fc57600080fd5b610fa09150841561080d5761177091505b83156108195761113091505b610829823463ffffffff61167616565b90506a5955e3bb3e743fec00000061084c826008546116ac90919063ffffffff16565b111561085757600080fd5b6aba1d9a70c21cda810000006108ae6108a1610892610883600a546008546116ac90919063ffffffff16565b6009549063ffffffff6116ac16565b6007549063ffffffff6116ac16565b839063ffffffff6116ac16565b11156108b957600080fd5b6008546108cc908263ffffffff6116ac16565b600855600c54604051600160a060020a03909116903480156108fc02916000818181858888f19350505050158015610908573d6000803e3d6000fd5b50600b54604080517f827f32c0000000000000000000000000000000000000000000000000000000008152600160a060020a038a81166004830152602482018590529151919092169163827f32c09160448083019260209291908290030181600087803b15801561097857600080fd5b505af115801561098c573d6000803e3d6000fd5b505050506040513d60208110156109a257600080fd5b505115156109af57600080fd5b5060019695505050505050565b600054600160a060020a031633146109d357600080fd5b600195909555600293909355600391909155600455600555600655565b60075481565b61190081565b60025481565b60095481565b600160a060020a0381166000908152600d60205260408120600101548110610a7a576040805160e560020a62461bcd02815260206004820152601d60248201527f436c6966662073686f756c6420626520626967676572207468616e2030000000604482015290519081900360640190fd5b600160a060020a0382166000908152600d602052604081205411610ae8576040805160e560020a62461bcd02815260206004820152601e60248201527f416d6f756e742073686f756c6420626520626967676572207468616e20300000604482015290519081900360640190fd5b600160a060020a0382166000908152600d6020526040902060010154421015610b5b576040805160e560020a62461bcd02815260206004820152601e60248201527f436c69666620646174652073686f756c64206265206166746572206e6f770000604482015290519081900360640190fd5b50600160a060020a038082166000818152600d60209081526040808320805490849055600b5482517fa9059cbb00000000000000000000000000000000000000000000000000000000815260048101969096526024860182905291519095919091169363a9059cbb9360448083019493928390030190829087803b158015610be257600080fd5b505af1158015610bf6573d6000803e3d6000fd5b505050506040513d6020811015610c0c57600080fd5b50511515610c64576040805160e560020a62461bcd02815260206004820152601960248201527f54686520746f6b656e207472616e73666572206661696c656400000000000000604482015290519081900360640190fd5b5050565b60065481565b6a5955e3bb3e743fec00000081565b600054600160a060020a03163314610c9457600080fd5b6000805473ffffffffffffffffffffffffffffffffffffffff1916600160a060020a0392909216919091179055565b600c54600160a060020a031681565b60008054600160a060020a0385811691161480610cf75750600160a060020a03841630145b15610d0457506001610d26565b50600c54760100000000000000000000000000000000000000000000900460ff165b9392505050565b600054600160a060020a03163314610d4457600080fd5b600c805474ff0000000000000000000000000000000000000000191674010000000000000000000000000000000000000000179055565b61177081565b600d602052600090815260409020805460019091015482565b600b54600160a060020a031681565b60008054600160a060020a03163314610dc157600080fd5b600654421180610dde57506a5955e3bb3e743fec00000060085410155b1515610de957600080fd5b600c5460a860020a900460ff1615610e0057600080fd5b604080518082018252600780548252426305a39a80016020808401918252600c54600160a060020a03166000908152600d90915293909320915182559151600190910155600954600a546008549254610e7b93610e6f929183919082906aba1d9a70c21cda81000000906116bb565b9063ffffffff6116bb16565b600b54600c54604080517f827f32c0000000000000000000000000000000000000000000000000000000008152600160a060020a03928316600482015260248101859052905193945091169163827f32c0916044808201926020929091908290030181600087803b158015610eef57600080fd5b505af1158015610f03573d6000803e3d6000fd5b505050506040513d6020811015610f1957600080fd5b50511515610f2657600080fd5b600b54600954600754600160a060020a039092169163827f32c0913091610f529163ffffffff6116ac16565b6040518363ffffffff1660e060020a0281526004018083600160a060020a0316600160a060020a0316815260200182815260200192505050602060405180830381600087803b158015610fa457600080fd5b505af1158015610fb8573d6000803e3d6000fd5b505050506040513d6020811015610fce57600080fd5b50511515610fdb57600080fd5b50600c805475ff000000000000000000000000000000000000000000191660a860020a179055565b600c5474010000000000000000000000000000000000000000900460ff1681565b600a5481565b600054600160a060020a0316331461104157600080fd5b600c805476ff000000000000000000000000000000000000000000001916760100000000000000000000000000000000000000000000179055565b610fa081565b60055481565b600080548190600160a060020a031633146110a257600080fd5b600c5460a860020a900460ff16156110b957600080fd5b600091505b83518210156111cc576110f183838151811015156110d857fe5b602090810290910101516119009063ffffffff61167616565b600a54909150611107908263ffffffff6116ac16565b600a55600b548451600160a060020a039091169063827f32c09086908590811061112d57fe5b90602001906020020151836040518363ffffffff1660e060020a0281526004018083600160a060020a0316600160a060020a0316815260200182815260200192505050602060405180830381600087803b15801561118a57600080fd5b505af115801561119e573d6000803e3d6000fd5b505050506040513d60208110156111b457600080fd5b505115156111c157600080fd5b6001909101906110be565b50505050565b60008054600160a060020a031633146111ea57600080fd5b600c5460a860020a900460ff161561124c576040805160e560020a62461bcd02815260206004820181905260248201527f5468652073616c652073686f756c64206e6f742062652066696e616c69736564604482015290519081900360640190fd5b5060005b84518110156114fd57611283848281518110151561126a57fe5b602090810290910101516008549063ffffffff6116ac16565b600855600b548551600160a060020a039091169063827f32c0908790849081106112a957fe5b9060200190602002015186848151811015156112c157fe5b906020019060200201516040518363ffffffff1660e060020a0281526004018083600160a060020a0316600160a060020a0316815260200182815260200192505050602060405180830381600087803b15801561131d57600080fd5b505af1158015611331573d6000803e3d6000fd5b505050506040513d602081101561134757600080fd5b5051151561139f576040805160e560020a62461bcd02815260206004820152601860248201527f47656e65726174696e6720746f6b656e73206661696c65640000000000000000604482015290519081900360640190fd5b604080519081016040528084838151811015156113b857fe5b90602001906020020151815260200183838151811015156113d557fe5b90602001906020020151815250600d600087848151811015156113f457fe5b6020908102909101810151600160a060020a031682528181019290925260400160002082518155910151600190910155825161144f9084908390811061143657fe5b602090810290910101516009549063ffffffff6116ac16565b506aba1d9a70c21cda81000000611479610892610883600a546008546116ac90919063ffffffff16565b11156114f5576040805160e560020a62461bcd02815260206004820152602860248201527f556e61626c6520746f206973737565206d6f7265207468616e20746865206d6160448201527f7820746f6b656e73000000000000000000000000000000000000000000000000606482015290519081900360840190fd5b600101611250565b5050505050565b600c54760100000000000000000000000000000000000000000000900460ff1681565b600c5460a860020a900460ff1681565b600054600160a060020a0316331461154e57600080fd5b600c805474ff000000000000000000000000000000000000000019169055565b60015481565b600054600160a060020a0316331461158b57600080fd5b600b54604080517f3cebb823000000000000000000000000000000000000000000000000000000008152600160a060020a03848116600483015291519190921691633cebb82391602480830192600092919082900301818387803b1580156115f257600080fd5b505af11580156114fd573d6000803e3d6000fd5b61113081565b6aba1d9a70c21cda8100000081565b600c5460009074010000000000000000000000000000000000000000900460ff161561164657600080fd5b61164f826106d2565b92915050565b60085481565b600054600160a060020a031681565b60045481565b60035481565b60008083151561168957600091506116a5565b5082820282848281151561169957fe5b04146116a157fe5b8091505b5092915050565b6000828201838110156116a157fe5b6000828211156116c757fe5b50900390565b60008082848115156116db57fe5b049493505050505600a165627a7a723058207482866b344f2ad9adb33c04d7ba4ebf55775594ddebc1d4b2338d2d205a358c0029",
  "source": "pragma solidity ^0.4.21;\n\nimport \"./DTXToken.sol\";\nimport \"./external/SafeMath.sol\";\nimport \"./external/Controlled.sol\";\nimport \"./external/ERC20Token.sol\";\n\n\ncontract TokenSale is TokenController, Controlled {\n\n  using SafeMath for uint256;\n\n  // In UNIX time format - http://www.unixtimestamp.com/\n  uint256 public startPresaleTime;\n  uint256 public endPresaleTime;\n  uint256 public startDayOneTime;\n  uint256 public endDayOneTime;\n  uint256 public startTime;\n  uint256 public endTime;\n\n  // the purchase rates\n  uint256 constant public TOKENS_PER_ETHER_EARLYSALE = 6400;\n  uint256 constant public TOKENS_PER_ETHER_PRESALE = 6000;\n  uint256 constant public TOKENS_PER_ETHER_DAY_ONE = 4400;\n  uint256 constant public TOKENS_PER_ETHER = 4000;\n\n  // max amount of 225 million tokens, in their smallest denomination\n  uint256 constant public MAX_TOKENS = 225000000 * 10**18;\n\n  // hard cap of 108 million tokens, in their smallest denomination\n  uint256 constant public HARD_CAP = 108000000 * 10**18;\n\n  // tokens locked for 3 years\n  uint256 public lockedTokens;\n\n  // total amount of tokens issues\n  uint256 public totalIssued;\n\n  // total amount of tokens locked in vesting\n  uint256 public totalVested;\n\n  // total amount of tokens issues\n  uint256 public totalIssuedEarlySale;\n\n  // the tokencontract for the DataBrokerDAO\n  DTXToken public tokenContract;\n\n  // the funds end up in this address\n  address public vaultAddress;\n\n  // is the token sale paused\n  bool public paused;\n\n  // is the token sale finalized\n  bool public finalized;\n\n  // are the tokens transferable\n  bool public transferable;\n\n  // listing of addresses with allowances\n  mapping(address => Vesting) public vestedAllowances;\n\n  struct Vesting {\n    uint256 amount;\n    uint256 cliff;\n  }\n\n  /// @dev the constructor\n  function TokenSale(\n    uint256 _startPresaleTime,\n    uint256 _endPresaleTime,\n    uint256 _startDayOneTime,\n    uint256 _endDayOneTime,\n    uint256 _startTime,\n    uint256 _endTime,\n    address _vaultAddress,\n    address _tokenAddress\n  ) public {\n    // are the dates in the future\n    require(_startPresaleTime > now);\n    require(_endPresaleTime > now);\n    require(_startDayOneTime > now);\n    require(_endDayOneTime > now);\n    require(_startTime > now);\n    require(_endTime > now);\n    // are the end dates after the start dates\n    require(_endPresaleTime >= _startPresaleTime);\n    require(_endDayOneTime >= _startDayOneTime);\n    require(_endTime >= _startTime);\n    // are the phases in the right order\n    require(_startTime >= _endDayOneTime);\n    require(_startDayOneTime >= _endPresaleTime);\n    // dates are correct, set them!\n    startPresaleTime = _startPresaleTime;\n    endPresaleTime = _endPresaleTime;\n    startDayOneTime = _startDayOneTime;\n    endDayOneTime = _endDayOneTime;\n    startTime = _startTime;\n    endTime = _endTime;\n    // make sure the the vault is there\n    require(_vaultAddress != 0x0);\n    vaultAddress = _vaultAddress;\n    // make sure the token is there\n    require(_tokenAddress != 0x0);\n    tokenContract = DTXToken(_tokenAddress);\n    // calculate the amount of tokens we need to lock up\n    lockedTokens = MAX_TOKENS.div(100).mul(30);\n    // set some stating flags\n    paused = false;\n    finalized = false;\n    transferable = false;\n  }\n\n  /// @dev The fallback function is called when ether is sent to the contract, it\n  /// simply calls `doPayment()` with the address that sent the ether as the\n  /// `_owner`. Payable is a required solidity modifier for functions to receive\n  /// ether, without this modifier functions will throw if ether is sent to them\n  function () public payable notPaused {\n    doPayment(msg.sender);\n  }\n\n  /// @notice `proxyPayment()` allows the caller to send ether to the TokenSale and\n  /// have the tokens created in an address of their choosing\n  function proxyPayment(address _owner) public payable notPaused returns(bool success) {\n    return doPayment(_owner);\n  }\n\n  /// @notice Notifies the controller about a transfer, for this TokenSale all\n  /// transfers are allowed by default and no extra notifications are needed\n  function onTransfer(address _from, address /*_to*/, uint /*_amount*/) public returns(bool success) {\n    if ( _from == controller || _from == address(this) ) {\n      return true;\n    }\n    return transferable;\n  }\n\n  /// @notice Notifies the controller about an approval, for this TokenSale all\n  /// approvals are allowed by default and no extra notifications are needed\n  function onApprove(address _owner, address /*_spender*/, uint /*_amount*/) public returns(bool success) {\n    if ( _owner == controller || _owner == address(this) ) {\n      return true;\n    }\n    return transferable;\n  }\n\n  /// @dev setter for the transferable flag\n  function makeTransferable() public onlyController {\n    transferable = true;\n  }\n\n  /// @dev update method for all the dates\n  function updateDates(\n    uint256 _startPresaleTime,\n    uint256 _endPresaleTime,\n    uint256 _startDayOneTime,\n    uint256 _endDayOneTime,\n    uint256 _startTime,\n    uint256 _endTime) public onlyController {\n    startPresaleTime = _startPresaleTime;\n    endPresaleTime = _endPresaleTime;\n    startDayOneTime = _startDayOneTime;\n    endDayOneTime = _endDayOneTime;\n    startTime = _startTime;\n    endTime = _endTime;\n  }\n\n  /// @dev utility function to allow the owner to handle the early sale purchases\n  function handleEarlySaleBuyers(address[] _recipients, uint256[] _ethAmounts) public onlyController {\n    // only run if the sale is not finalised yet\n    require(!finalized);\n    // loop over all recipients, use smallish lists in regards to gas costs (TBD)\n    for (uint256 i = 0; i < _recipients.length; i++) {\n      // use the fixed conversion rate from ETH to DTX\n      uint256 tokensToIssue = TOKENS_PER_ETHER_EARLYSALE.mul(_ethAmounts[i]);\n      // keep a separate counter to have a complete records on DTX issued\n      totalIssuedEarlySale = totalIssuedEarlySale.add(tokensToIssue);\n      // Creates an equal amount of tokens as ether sent. The new tokens are created in the address of the recipient\n      require(tokenContract.generateTokens(_recipients[i], tokensToIssue));\n    }\n  }\n\n  /// @dev utility function to allow the owner to handle private and bitcoin buyers\n  function handleExternalBuyers(\n    address[] _recipients,\n    uint256[] _free,\n    uint256[] _locked,\n    uint256[] _cliffs\n  ) public onlyController {\n    // only run if the sale is not finalised yet\n    require(!finalized, \"The sale should not be finalised\");\n    // loop over all recipients, use smallish lists in regards to gas costs (TBD)\n    for (uint256 i = 0; i < _recipients.length; i++) {\n      // these tokens count for the hard cap limit, but they are guaranteed to succeed so no hardcap check.\n      totalIssued = totalIssued.add(_free[i]);\n      // Creates an equal amount of tokens as ether sent. The new tokens are created in the address of the recipient\n      require(tokenContract.generateTokens(_recipients[i], _free[i]), \"Generating tokens failed\");\n      // locks the rest until the cliff is reached\n      vestedAllowances[_recipients[i]] = Vesting(_locked[i], _cliffs[i]);\n      totalVested.add(_locked[i]);\n      require(lockedTokens.add(totalVested.add(totalIssued.add(totalIssuedEarlySale))) <= MAX_TOKENS, \"Unable to issue more than the max tokens\");\n    }\n  }\n\n  /// @dev `doPayment()` is an internal function that sends the ether that this\n  ///  contract receives to the `vault` and creates tokens in the address of the\n  ///  `_owner` assuming the TokenSale is still accepting funds\n  function doPayment(address _owner) internal returns(bool success) {\n    // there is no reason to check anything if there is no ETH being sent\n    require(msg.value > 0);\n\n    // if this contract is not the controller, we can fail immediately\n    require(tokenContract.controller() == address(this));\n\n    // check in what period we are\n    bool isPresale = startPresaleTime <= now && endPresaleTime >= now;\n    bool isDayOne = startDayOneTime <= now && endDayOneTime >= now;\n    bool isSale = startTime <= now && endTime >= now;\n\n    // check if we are in one of the sale periods\n    require(isPresale || isDayOne || isSale);\n\n    // check the minimum for the presale phase\n    if (isPresale) {\n      require(msg.value >= 10 ether);\n    }\n\n    // figure out the rate for this period.\n    uint256 tokensPerEther = TOKENS_PER_ETHER;\n    if (isPresale) {\n      tokensPerEther = TOKENS_PER_ETHER_PRESALE;\n    }\n    if (isDayOne) {\n      tokensPerEther = TOKENS_PER_ETHER_DAY_ONE;\n    }\n\n    // calculate the tokens to issue (since the decimals match, we just need to multiply the wei amounts)\n    uint256 tokensToIssue = tokensPerEther.mul(msg.value);\n\n    // have we reached the max contribution\n    require(totalIssued.add(tokensToIssue) <= HARD_CAP);\n    require(tokensToIssue.add(lockedTokens.add(totalVested.add(totalIssued.add(totalIssuedEarlySale)))) <= MAX_TOKENS);\n\n    // Track how much the TokenSale has collected\n    totalIssued = totalIssued.add(tokensToIssue);\n\n    // Send the ether to the vault\n    vaultAddress.transfer(msg.value);\n\n    // Creates an equal amount of tokens as ether sent. The new tokens are created in the `_owner` address\n    require(tokenContract.generateTokens(_owner, tokensToIssue));\n\n    return true;\n  }\n\n  /// @dev Allow the owner of TokenSale to change the controller of the token\n  function changeTokenController(address _newController) public onlyController {\n    tokenContract.changeController(_newController);\n  }\n\n  /// @notice `finalizeSale()` ends the TokenSale. It will generate the platform and team tokens\n  ///  and set the controller to the referral fee contract.\n  /// @dev `finalizeSale()` can only be called after the end of the funding period or if the maximum amount is raised.\n  function finalizeSale() public onlyController {\n    // either the end time is passed, or the hard cap is reached\n    require(now > endTime || totalIssued >= HARD_CAP);\n\n    // we should only do this function once since it generates tokens\n    require(!finalized);\n\n    vestedAllowances[vaultAddress] = Vesting(lockedTokens, now + 3 years);\n\n    // calculate how many tokens are left if we subtract all the issued amounts\n    uint256 leftoverTokens = MAX_TOKENS.sub(lockedTokens).sub(totalIssued).sub(totalIssuedEarlySale).sub(totalVested);\n\n    // generate that left over amount in the vault address\n    require(tokenContract.generateTokens(vaultAddress, leftoverTokens));\n    require(tokenContract.generateTokens(address(this), lockedTokens.add(totalVested)));\n\n    finalized = true;\n  }\n\n  function claimLockedTokens(address _owner) public {\n    require(vestedAllowances[_owner].cliff > 0, \"Cliff should be bigger than 0\");\n    require(vestedAllowances[_owner].amount > 0, \"Amount should be bigger than 0\");\n    require(now >= vestedAllowances[_owner].cliff, \"Cliff date should be after now\");\n    uint256 amount = vestedAllowances[_owner].amount;\n    vestedAllowances[_owner].amount = 0;\n    require(tokenContract.transfer(_owner, amount), \"The token transfer failed\");\n  }\n\n  /// @notice Pauses the contribution if there is any issue\n  function pauseContribution() public onlyController {\n    paused = true;\n  }\n\n  /// @notice Resumes the contribution\n  function resumeContribution() public onlyController {\n    paused = false;\n  }\n\n  modifier notPaused() {\n    require(!paused);\n    _;\n  }\n}\n",
  "sourcePath": "/Users/roderik/Development/dtx-crowdsale-contracts/contracts/TokenSale.sol",
  "compiler": {
    "name": "solc",
    "version": "0.4.25+commit.59dbf8f1.Emscripten.clang"
  },
  "schemaVersion": "3.0.1",
  "updatedAt": "2019-01-09T12:23:04.000Z",
  "devdoc": {
    "methods": {
      "changeController(address)": {
        "params": {
          "_newController": "The new controller of the contract"
        }
      },
      "changeTokenController(address)": {
        "details": "Allow the owner of TokenSale to change the controller of the token"
      },
      "finalizeSale()": {
        "details": "`finalizeSale()` can only be called after the end of the funding period or if the maximum amount is raised."
      },
      "handleEarlySaleBuyers(address[],uint256[])": {
        "details": "utility function to allow the owner to handle the early sale purchases"
      },
      "handleExternalBuyers(address[],uint256[],uint256[],uint256[])": {
        "details": "utility function to allow the owner to handle private and bitcoin buyers"
      },
      "makeTransferable()": {
        "details": "setter for the transferable flag"
      },
      "updateDates(uint256,uint256,uint256,uint256,uint256,uint256)": {
        "details": "update method for all the dates"
      }
    }
  },
  "userdoc": {
    "methods": {
      "changeController(address)": {
        "notice": "Changes the controller of the contract"
      },
      "finalizeSale()": {
        "notice": "`finalizeSale()` ends the TokenSale. It will generate the platform and team tokens  and set the controller to the referral fee contract."
      },
      "onApprove(address,address,uint256)": {
        "notice": "Notifies the controller about an approval, for this TokenSale all approvals are allowed by default and no extra notifications are needed"
      },
      "onTransfer(address,address,uint256)": {
        "notice": "Notifies the controller about a transfer, for this TokenSale all transfers are allowed by default and no extra notifications are needed"
      },
      "pauseContribution()": {
        "notice": "Pauses the contribution if there is any issue"
      },
      "proxyPayment(address)": {
        "notice": "`proxyPayment()` allows the caller to send ether to the TokenSale and have the tokens created in an address of their choosing"
      },
      "resumeContribution()": {
        "notice": "Resumes the contribution"
      }
    }
  }
}