{
  "contractName": "TokenSale",
  "abi": [
    {
      "constant": true,
      "inputs": [],
      "name": "lockedTokens",
      "outputs": [
        {
          "name": "",
          "type": "uint256"
        }
      ],
      "payable": false,
      "stateMutability": "view",
      "type": "function"
    },
    {
      "constant": true,
      "inputs": [],
      "name": "TOKENS_PER_ETHER_EARLYSALE",
      "outputs": [
        {
          "name": "",
          "type": "uint256"
        }
      ],
      "payable": false,
      "stateMutability": "view",
      "type": "function"
    },
    {
      "constant": true,
      "inputs": [],
      "name": "endPresaleTime",
      "outputs": [
        {
          "name": "",
          "type": "uint256"
        }
      ],
      "payable": false,
      "stateMutability": "view",
      "type": "function"
    },
    {
      "constant": true,
      "inputs": [],
      "name": "totalVested",
      "outputs": [
        {
          "name": "",
          "type": "uint256"
        }
      ],
      "payable": false,
      "stateMutability": "view",
      "type": "function"
    },
    {
      "constant": true,
      "inputs": [],
      "name": "endTime",
      "outputs": [
        {
          "name": "",
          "type": "uint256"
        }
      ],
      "payable": false,
      "stateMutability": "view",
      "type": "function"
    },
    {
      "constant": true,
      "inputs": [],
      "name": "HARD_CAP",
      "outputs": [
        {
          "name": "",
          "type": "uint256"
        }
      ],
      "payable": false,
      "stateMutability": "view",
      "type": "function"
    },
    {
      "constant": false,
      "inputs": [
        {
          "name": "_newController",
          "type": "address"
        }
      ],
      "name": "changeController",
      "outputs": [],
      "payable": false,
      "stateMutability": "nonpayable",
      "type": "function"
    },
    {
      "constant": true,
      "inputs": [],
      "name": "vaultAddress",
      "outputs": [
        {
          "name": "",
          "type": "address"
        }
      ],
      "payable": false,
      "stateMutability": "view",
      "type": "function"
    },
    {
      "constant": true,
      "inputs": [],
      "name": "TOKENS_PER_ETHER_PRESALE",
      "outputs": [
        {
          "name": "",
          "type": "uint256"
        }
      ],
      "payable": false,
      "stateMutability": "view",
      "type": "function"
    },
    {
      "constant": true,
      "inputs": [],
      "name": "tokenContract",
      "outputs": [
        {
          "name": "",
          "type": "address"
        }
      ],
      "payable": false,
      "stateMutability": "view",
      "type": "function"
    },
    {
      "constant": true,
      "inputs": [],
      "name": "paused",
      "outputs": [
        {
          "name": "",
          "type": "bool"
        }
      ],
      "payable": false,
      "stateMutability": "view",
      "type": "function"
    },
    {
      "constant": true,
      "inputs": [],
      "name": "totalIssuedEarlySale",
      "outputs": [
        {
          "name": "",
          "type": "uint256"
        }
      ],
      "payable": false,
      "stateMutability": "view",
      "type": "function"
    },
    {
      "constant": true,
      "inputs": [],
      "name": "TOKENS_PER_ETHER",
      "outputs": [
        {
          "name": "",
          "type": "uint256"
        }
      ],
      "payable": false,
      "stateMutability": "view",
      "type": "function"
    },
    {
      "constant": true,
      "inputs": [],
      "name": "startTime",
      "outputs": [
        {
          "name": "",
          "type": "uint256"
        }
      ],
      "payable": false,
      "stateMutability": "view",
      "type": "function"
    },
    {
      "constant": true,
      "inputs": [],
      "name": "transferable",
      "outputs": [
        {
          "name": "",
          "type": "bool"
        }
      ],
      "payable": false,
      "stateMutability": "view",
      "type": "function"
    },
    {
      "constant": true,
      "inputs": [],
      "name": "finalized",
      "outputs": [
        {
          "name": "",
          "type": "bool"
        }
      ],
      "payable": false,
      "stateMutability": "view",
      "type": "function"
    },
    {
      "constant": true,
      "inputs": [],
      "name": "startPresaleTime",
      "outputs": [
        {
          "name": "",
          "type": "uint256"
        }
      ],
      "payable": false,
      "stateMutability": "view",
      "type": "function"
    },
    {
      "constant": true,
      "inputs": [],
      "name": "TOKENS_PER_ETHER_DAY_ONE",
      "outputs": [
        {
          "name": "",
          "type": "uint256"
        }
      ],
      "payable": false,
      "stateMutability": "view",
      "type": "function"
    },
    {
      "constant": true,
      "inputs": [],
      "name": "MAX_TOKENS",
      "outputs": [
        {
          "name": "",
          "type": "uint256"
        }
      ],
      "payable": false,
      "stateMutability": "view",
      "type": "function"
    },
    {
      "constant": true,
      "inputs": [],
      "name": "totalIssued",
      "outputs": [
        {
          "name": "",
          "type": "uint256"
        }
      ],
      "payable": false,
      "stateMutability": "view",
      "type": "function"
    },
    {
      "constant": true,
      "inputs": [],
      "name": "controller",
      "outputs": [
        {
          "name": "",
          "type": "address"
        }
      ],
      "payable": false,
      "stateMutability": "view",
      "type": "function"
    },
    {
      "constant": true,
      "inputs": [],
      "name": "endDayOneTime",
      "outputs": [
        {
          "name": "",
          "type": "uint256"
        }
      ],
      "payable": false,
      "stateMutability": "view",
      "type": "function"
    },
    {
      "constant": true,
      "inputs": [],
      "name": "startDayOneTime",
      "outputs": [
        {
          "name": "",
          "type": "uint256"
        }
      ],
      "payable": false,
      "stateMutability": "view",
      "type": "function"
    },
    {
      "inputs": [
        {
          "name": "_startPresaleTime",
          "type": "uint256"
        },
        {
          "name": "_endPresaleTime",
          "type": "uint256"
        },
        {
          "name": "_startDayOneTime",
          "type": "uint256"
        },
        {
          "name": "_endDayOneTime",
          "type": "uint256"
        },
        {
          "name": "_startTime",
          "type": "uint256"
        },
        {
          "name": "_endTime",
          "type": "uint256"
        },
        {
          "name": "_vaultAddress",
          "type": "address"
        },
        {
          "name": "_tokenAddress",
          "type": "address"
        }
      ],
      "payable": false,
      "stateMutability": "nonpayable",
      "type": "constructor"
    },
    {
      "payable": true,
      "stateMutability": "payable",
      "type": "fallback"
    },
    {
      "constant": false,
      "inputs": [
        {
          "name": "_owner",
          "type": "address"
        }
      ],
      "name": "proxyPayment",
      "outputs": [
        {
          "name": "success",
          "type": "bool"
        }
      ],
      "payable": true,
      "stateMutability": "payable",
      "type": "function"
    },
    {
      "constant": false,
      "inputs": [
        {
          "name": "_from",
          "type": "address"
        },
        {
          "name": "",
          "type": "address"
        },
        {
          "name": "",
          "type": "uint256"
        }
      ],
      "name": "onTransfer",
      "outputs": [
        {
          "name": "success",
          "type": "bool"
        }
      ],
      "payable": false,
      "stateMutability": "nonpayable",
      "type": "function"
    },
    {
      "constant": false,
      "inputs": [
        {
          "name": "_owner",
          "type": "address"
        },
        {
          "name": "",
          "type": "address"
        },
        {
          "name": "",
          "type": "uint256"
        }
      ],
      "name": "onApprove",
      "outputs": [
        {
          "name": "success",
          "type": "bool"
        }
      ],
      "payable": false,
      "stateMutability": "nonpayable",
      "type": "function"
    },
    {
      "constant": false,
      "inputs": [],
      "name": "makeTransferable",
      "outputs": [],
      "payable": false,
      "stateMutability": "nonpayable",
      "type": "function"
    },
    {
      "constant": false,
      "inputs": [
        {
          "name": "_startPresaleTime",
          "type": "uint256"
        },
        {
          "name": "_endPresaleTime",
          "type": "uint256"
        },
        {
          "name": "_startDayOneTime",
          "type": "uint256"
        },
        {
          "name": "_endDayOneTime",
          "type": "uint256"
        },
        {
          "name": "_startTime",
          "type": "uint256"
        },
        {
          "name": "_endTime",
          "type": "uint256"
        }
      ],
      "name": "updateDates",
      "outputs": [],
      "payable": false,
      "stateMutability": "nonpayable",
      "type": "function"
    },
    {
      "constant": false,
      "inputs": [
        {
          "name": "_recipients",
          "type": "address[]"
        },
        {
          "name": "_ethAmounts",
          "type": "uint256[]"
        }
      ],
      "name": "handleEarlySaleBuyers",
      "outputs": [],
      "payable": false,
      "stateMutability": "nonpayable",
      "type": "function"
    },
    {
      "constant": false,
      "inputs": [
        {
          "name": "_recipients",
          "type": "address[]"
        },
        {
          "name": "_free",
          "type": "uint256[]"
        },
        {
          "name": "_locked",
          "type": "uint256[]"
        },
        {
          "name": "_cliffs",
          "type": "uint256[]"
        }
      ],
      "name": "handleExternalBuyers",
      "outputs": [],
      "payable": false,
      "stateMutability": "nonpayable",
      "type": "function"
    },
    {
      "constant": false,
      "inputs": [
        {
          "name": "_newController",
          "type": "address"
        }
      ],
      "name": "changeTokenController",
      "outputs": [],
      "payable": false,
      "stateMutability": "nonpayable",
      "type": "function"
    },
    {
      "constant": false,
      "inputs": [],
      "name": "finalizeSale",
      "outputs": [],
      "payable": false,
      "stateMutability": "nonpayable",
      "type": "function"
    },
    {
      "constant": false,
      "inputs": [
        {
          "name": "_owner",
          "type": "address"
        }
      ],
      "name": "claimLockedTokens",
      "outputs": [],
      "payable": false,
      "stateMutability": "nonpayable",
      "type": "function"
    },
    {
      "constant": false,
      "inputs": [],
      "name": "pauseContribution",
      "outputs": [],
      "payable": false,
      "stateMutability": "nonpayable",
      "type": "function"
    },
    {
      "constant": false,
      "inputs": [],
      "name": "resumeContribution",
      "outputs": [],
      "payable": false,
      "stateMutability": "nonpayable",
      "type": "function"
    }
  ],
  "bytecode": "0x60806040523480156200001157600080fd5b50604051610100806200180d83398101604090815281516020830151918301516060840151608085015160a086015160c087015160e09097015160008054600160a060020a0319163317905594969394929391929091904288116200007557600080fd5b4287116200008257600080fd5b4286116200008f57600080fd5b4285116200009c57600080fd5b428411620000a957600080fd5b428311620000b657600080fd5b87871015620000c457600080fd5b85851015620000d257600080fd5b83831015620000e057600080fd5b84841015620000ee57600080fd5b86861015620000fc57600080fd5b600188905560028790556003869055600485905560058490556006839055600160a060020a03821615156200013057600080fd5b600c8054600160a060020a031916600160a060020a0384811691909117909155811615156200015e57600080fd5b600b8054600160a060020a031916600160a060020a038316179055620001ba601e620001a56aba1d9a70c21cda810000006064640100000000620001de8102620015891704565b9064010000000062001532620001fb82021704565b6007555050600c805460a060020a62ffffff02191690555062000231945050505050565b6000808284811515620001ed57fe5b0490508091505b5092915050565b600080831515620002105760009150620001f4565b508282028284828115156200022157fe5b04146200022a57fe5b9392505050565b6115cc80620002416000396000f30060806040526004361061019d5763ffffffff60e060020a600035041663064292a881146101d15780630eb34740146101fa5780630f98c91a146102215780631264299a14610236578063199cbc541461024b5780631adadda8146102605780633197cbb6146102815780633a03171c146102965780633cebb823146102ab578063430bf08a146102cc5780634a393149146102fd5780634b8adcf71461033b57806350d5914a1461035057806355a373d61461036557806358a687ec1461037a5780635c975abb1461038f57806363036f86146103a4578063696fd68c146103b95780636b4a6ded146103ce57806378e97925146103e35780637a38012e146103f85780638a426b1b1461048657806392ff0d3114610586578063b3f05b971461059b578063b681f9f6146105b0578063c74b1e01146105c5578063d6c8976b146105da578063da682aeb146102fd578063ee4aa327146105fb578063f47c84c514610610578063f48c305414610625578063f5be319314610639578063f77c47911461064e578063f942be1c14610663578063fa848fb014610678575b600c5474010000000000000000000000000000000000000000900460ff16156101c557600080fd5b6101ce3361068d565b50005b3480156101dd57600080fd5b506101f860043560243560443560643560843560a435610977565b005b34801561020657600080fd5b5061020f6109ab565b60408051918252519081900360200190f35b34801561022d57600080fd5b5061020f6109b1565b34801561024257600080fd5b5061020f6109b7565b34801561025757600080fd5b5061020f6109bd565b34801561026c57600080fd5b506101f8600160a060020a03600435166109c3565b34801561028d57600080fd5b5061020f610af8565b3480156102a257600080fd5b5061020f610afe565b3480156102b757600080fd5b506101f8600160a060020a0360043516610b0d565b3480156102d857600080fd5b506102e1610b53565b60408051600160a060020a039092168252519081900360200190f35b34801561030957600080fd5b50610327600160a060020a0360043581169060243516604435610b62565b604080519115158252519081900360200190f35b34801561034757600080fd5b506101f8610bbd565b34801561035c57600080fd5b5061020f610c0b565b34801561037157600080fd5b506102e1610c11565b34801561038657600080fd5b506101f8610c20565b34801561039b57600080fd5b50610327610e7a565b3480156103b057600080fd5b5061020f610e9b565b3480156103c557600080fd5b506101f8610ea1565b3480156103da57600080fd5b5061020f610ef3565b3480156103ef57600080fd5b5061020f610ef9565b34801561040457600080fd5b50604080516020600480358082013583810280860185019096528085526101f895369593946024949385019291829185019084908082843750506040805187358901803560208181028481018201909552818452989b9a998901989297509082019550935083925085019084908082843750949750610eff9650505050505050565b34801561049257600080fd5b50604080516020600480358082013583810280860185019096528085526101f895369593946024949385019291829185019084908082843750506040805187358901803560208181028481018201909552818452989b9a998901989297509082019550935083925085019084908082843750506040805187358901803560208181028481018201909552818452989b9a998901989297509082019550935083925085019084908082843750506040805187358901803560208181028481018201909552818452989b9a9989019892975090820195509350839250850190849080828437509497506110499650505050505050565b34801561059257600080fd5b506103276113c0565b3480156105a757600080fd5b506103276113e3565b3480156105bc57600080fd5b506101f86113f3565b3480156105d157600080fd5b5061020f61142a565b3480156105e657600080fd5b506101f8600160a060020a0360043516611430565b34801561060757600080fd5b5061020f6114c2565b34801561061c57600080fd5b5061020f6114c8565b610327600160a060020a03600435166114d7565b34801561064557600080fd5b5061020f611511565b34801561065a57600080fd5b506102e1611517565b34801561066f57600080fd5b5061020f611526565b34801561068457600080fd5b5061020f61152c565b600080808080803481106106a057600080fd5b600b54604080517ff77c479100000000000000000000000000000000000000000000000000000000815290513092600160a060020a03169163f77c47919160048083019260209291908290030181600087803b1580156106ff57600080fd5b505af1158015610713573d6000803e3d6000fd5b505050506040513d602081101561072957600080fd5b5051600160a060020a03161461073e57600080fd5b426001541115801561075257504260025410155b9450426003541115801561076857504260045410155b9350426005541115801561077e57504260065410155b925084806107895750835b806107915750825b151561079c57600080fd5b84156107b757678ac7230489e800003410156107b757600080fd5b610fa0915084156107c85761177091505b83156107d45761113091505b6107e4823463ffffffff61153216565b90506a5955e3bb3e743fec0000006108078260085461156890919063ffffffff16565b111561081257600080fd5b6aba1d9a70c21cda8100000061086961085c61084d61083e600a5460085461156890919063ffffffff16565b6009549063ffffffff61156816565b6007549063ffffffff61156816565b839063ffffffff61156816565b111561087457600080fd5b600854610887908263ffffffff61156816565b600855600c54604051600160a060020a03909116903480156108fc02916000818181858888f193505050501580156108c3573d6000803e3d6000fd5b50600b54604080517f827f32c0000000000000000000000000000000000000000000000000000000008152600160a060020a038a81166004830152602482018590529151919092169163827f32c09160448083019260209291908290030181600087803b15801561093357600080fd5b505af1158015610947573d6000803e3d6000fd5b505050506040513d602081101561095d57600080fd5b5051151561096a57600080fd5b5060019695505050505050565b600054600160a060020a0316331461098e57600080fd5b600195909555600293909355600391909155600455600555600655565b60075481565b61190081565b60025481565b60095481565b600160a060020a0381166000908152600d602052604081206001015481108015610a035750600160a060020a0382166000908152600d6020526040812054115b1515610a0e57600080fd5b600160a060020a0382166000908152600d6020526040902060010154421015610a3657600080fd5b50600160a060020a038082166000818152600d60209081526040808320805490849055600b5482517fa9059cbb00000000000000000000000000000000000000000000000000000000815260048101969096526024860182905291519095919091169363a9059cbb9360448083019493928390030190829087803b158015610abd57600080fd5b505af1158015610ad1573d6000803e3d6000fd5b505050506040513d6020811015610ae757600080fd5b50511515610af457600080fd5b5050565b60065481565b6a5955e3bb3e743fec00000081565b600054600160a060020a03163314610b2457600080fd5b6000805473ffffffffffffffffffffffffffffffffffffffff1916600160a060020a0392909216919091179055565b600c54600160a060020a031681565b60008054600160a060020a0385811691161480610b875750600160a060020a03841630145b15610b9457506001610bb6565b50600c54760100000000000000000000000000000000000000000000900460ff165b9392505050565b600054600160a060020a03163314610bd457600080fd5b600c805474ff0000000000000000000000000000000000000000191674010000000000000000000000000000000000000000179055565b61177081565b600b54600160a060020a031681565b60008054600160a060020a03163314610c3857600080fd5b600654421180610c5557506a5955e3bb3e743fec00000060085410155b1515610c6057600080fd5b600c5460a860020a900460ff1615610c7757600080fd5b604080518082018252600780548252426305a39a80016020808401918252600c54600160a060020a03166000908152600d90915293909320915182559151600190910155600954600a546008549254610cf293610ce6929183919082906aba1d9a70c21cda8100000090611577565b9063ffffffff61157716565b600b54600c54604080517f827f32c0000000000000000000000000000000000000000000000000000000008152600160a060020a03928316600482015260248101859052905193945091169163827f32c0916044808201926020929091908290030181600087803b158015610d6657600080fd5b505af1158015610d7a573d6000803e3d6000fd5b505050506040513d6020811015610d9057600080fd5b50511515610d9d57600080fd5b600b54600954600754600160a060020a039092169163827f32c0913091610dc99163ffffffff61156816565b6040518363ffffffff1660e060020a0281526004018083600160a060020a0316600160a060020a0316815260200182815260200192505050602060405180830381600087803b158015610e1b57600080fd5b505af1158015610e2f573d6000803e3d6000fd5b505050506040513d6020811015610e4557600080fd5b50511515610e5257600080fd5b50600c805475ff000000000000000000000000000000000000000000191660a860020a179055565b600c5474010000000000000000000000000000000000000000900460ff1681565b600a5481565b600054600160a060020a03163314610eb857600080fd5b600c805476ff000000000000000000000000000000000000000000001916760100000000000000000000000000000000000000000000179055565b610fa081565b60055481565b600080548190600160a060020a03163314610f1957600080fd5b600c5460a860020a900460ff1615610f3057600080fd5b600091505b835182101561104357610f688383815181101515610f4f57fe5b602090810290910101516119009063ffffffff61153216565b600a54909150610f7e908263ffffffff61156816565b600a55600b548451600160a060020a039091169063827f32c090869085908110610fa457fe5b90602001906020020151836040518363ffffffff1660e060020a0281526004018083600160a060020a0316600160a060020a0316815260200182815260200192505050602060405180830381600087803b15801561100157600080fd5b505af1158015611015573d6000803e3d6000fd5b505050506040513d602081101561102b57600080fd5b5051151561103857600080fd5b600190910190610f35565b50505050565b60008054600160a060020a0316331461106157600080fd5b600c5460a860020a900460ff16156110da57604080517f08c379a000000000000000000000000000000000000000000000000000000000815260206004820181905260248201527f5468652073616c652073686f756c64206e6f742062652066696e616c69736564604482015290519081900360640190fd5b5060005b84518110156113b95761111184828151811015156110f857fe5b602090810290910101516008549063ffffffff61156816565b600855600b548551600160a060020a039091169063827f32c09087908490811061113757fe5b90602001906020020151868481518110151561114f57fe5b906020019060200201516040518363ffffffff1660e060020a0281526004018083600160a060020a0316600160a060020a0316815260200182815260200192505050602060405180830381600087803b1580156111ab57600080fd5b505af11580156111bf573d6000803e3d6000fd5b505050506040513d60208110156111d557600080fd5b5051151561124457604080517f08c379a000000000000000000000000000000000000000000000000000000000815260206004820152601860248201527f47656e65726174696e6720746f6b656e73206661696c65640000000000000000604482015290519081900360640190fd5b6040805190810160405280848381518110151561125d57fe5b906020019060200201518152602001838381518110151561127a57fe5b90602001906020020151815250600d6000878481518110151561129957fe5b6020908102909101810151600160a060020a03168252818101929092526040016000208251815591015160019091015582516112f4908490839081106112db57fe5b602090810290910101516009549063ffffffff61156816565b506aba1d9a70c21cda8100000061131e61084d61083e600a5460085461156890919063ffffffff16565b11156113b157604080517f08c379a000000000000000000000000000000000000000000000000000000000815260206004820152602860248201527f556e61626c6520746f206973737565206d6f7265207468616e20746865206d6160448201527f7820746f6b656e73000000000000000000000000000000000000000000000000606482015290519081900360840190fd5b6001016110de565b5050505050565b600c54760100000000000000000000000000000000000000000000900460ff1681565b600c5460a860020a900460ff1681565b600054600160a060020a0316331461140a57600080fd5b600c805474ff000000000000000000000000000000000000000019169055565b60015481565b600054600160a060020a0316331461144757600080fd5b600b54604080517f3cebb823000000000000000000000000000000000000000000000000000000008152600160a060020a03848116600483015291519190921691633cebb82391602480830192600092919082900301818387803b1580156114ae57600080fd5b505af11580156113b9573d6000803e3d6000fd5b61113081565b6aba1d9a70c21cda8100000081565b600c5460009074010000000000000000000000000000000000000000900460ff161561150257600080fd5b61150b8261068d565b92915050565b60085481565b600054600160a060020a031681565b60045481565b60035481565b6000808315156115455760009150611561565b5082820282848281151561155557fe5b041461155d57fe5b8091505b5092915050565b60008282018381101561155d57fe5b60008282111561158357fe5b50900390565b600080828481151561159757fe5b049493505050505600a165627a7a723058206084ca5df98a699638895b3f4d694141d9a3841b5db9f6b392ad1df2498bfb2a0029",
  "source": "pragma solidity ^0.4.21;\n\nimport \"./DTXToken.sol\";\nimport \"./external/SafeMath.sol\";\nimport \"./external/Controlled.sol\";\nimport \"./external/ERC20Token.sol\";\n\n\ncontract TokenSale is TokenController, Controlled {\n\n  using SafeMath for uint256;\n\n  // In UNIX time format - http://www.unixtimestamp.com/\n  uint256 public startPresaleTime;\n  uint256 public endPresaleTime;\n  uint256 public startDayOneTime;\n  uint256 public endDayOneTime;\n  uint256 public startTime;\n  uint256 public endTime;\n\n  // the purchase rates\n  uint256 constant public TOKENS_PER_ETHER_EARLYSALE = 6400;\n  uint256 constant public TOKENS_PER_ETHER_PRESALE = 6000;\n  uint256 constant public TOKENS_PER_ETHER_DAY_ONE = 4400;\n  uint256 constant public TOKENS_PER_ETHER = 4000;\n\n  // max amount of 225 million tokens, in their smallest denomination\n  uint256 constant public MAX_TOKENS = 225000000 * 10**18;\n\n  // hard cap of 108 million tokens, in their smallest denomination\n  uint256 constant public HARD_CAP = 108000000 * 10**18;\n\n  // tokens locked for 3 years\n  uint256 public lockedTokens;\n\n  // total amount of tokens issues\n  uint256 public totalIssued;\n\n  // total amount of tokens locked in vesting\n  uint256 public totalVested;\n\n  // total amount of tokens issues\n  uint256 public totalIssuedEarlySale;\n\n  // the tokencontract for the DataBrokerDAO\n  DTXToken public tokenContract;\n\n  // the funds end up in this address\n  address public vaultAddress;\n\n  // is the token sale paused\n  bool public paused;\n\n  // is the token sale finalized\n  bool public finalized;\n\n  // are the tokens transferable\n  bool public transferable;\n\n  // listing of addresses with allowances\n  mapping(address => Vesting) vestedAllowances;\n\n  struct Vesting {\n    uint256 amount;\n    uint256 cliff;\n  }\n\n  /// @dev the constructor\n  function TokenSale(\n    uint256 _startPresaleTime,\n    uint256 _endPresaleTime,\n    uint256 _startDayOneTime,\n    uint256 _endDayOneTime,\n    uint256 _startTime,\n    uint256 _endTime,\n    address _vaultAddress,\n    address _tokenAddress\n  ) public {\n    // are the dates in the future\n    require(_startPresaleTime > now);\n    require(_endPresaleTime > now);\n    require(_startDayOneTime > now);\n    require(_endDayOneTime > now);\n    require(_startTime > now);\n    require(_endTime > now);\n    // are the end dates after the start dates\n    require(_endPresaleTime >= _startPresaleTime);\n    require(_endDayOneTime >= _startDayOneTime);\n    require(_endTime >= _startTime);\n    // are the phases in the right order\n    require(_startTime >= _endDayOneTime);\n    require(_startDayOneTime >= _endPresaleTime);\n    // dates are correct, set them!\n    startPresaleTime = _startPresaleTime;\n    endPresaleTime = _endPresaleTime;\n    startDayOneTime = _startDayOneTime;\n    endDayOneTime = _endDayOneTime;\n    startTime = _startTime;\n    endTime = _endTime;\n    // make sure the the vault is there\n    require(_vaultAddress != 0x0);\n    vaultAddress = _vaultAddress;\n    // make sure the token is there\n    require(_tokenAddress != 0x0);\n    tokenContract = DTXToken(_tokenAddress);\n    // calculate the amount of tokens we need to lock up\n    lockedTokens = MAX_TOKENS.div(100).mul(30);\n    // set some stating flags\n    paused = false;\n    finalized = false;\n    transferable = false;\n  }\n\n  /// @dev The fallback function is called when ether is sent to the contract, it\n  /// simply calls `doPayment()` with the address that sent the ether as the\n  /// `_owner`. Payable is a required solidity modifier for functions to receive\n  /// ether, without this modifier functions will throw if ether is sent to them\n  function () public payable notPaused {\n    doPayment(msg.sender);\n  }\n\n  /// @notice `proxyPayment()` allows the caller to send ether to the TokenSale and\n  /// have the tokens created in an address of their choosing\n  function proxyPayment(address _owner) public payable notPaused returns(bool success) {\n    return doPayment(_owner);\n  }\n\n  /// @notice Notifies the controller about a transfer, for this TokenSale all\n  /// transfers are allowed by default and no extra notifications are needed\n  function onTransfer(address _from, address /*_to*/, uint /*_amount*/) public returns(bool success) {\n    if ( _from == controller || _from == address(this) ) {\n      return true;\n    }\n    return transferable;\n  }\n\n  /// @notice Notifies the controller about an approval, for this TokenSale all\n  /// approvals are allowed by default and no extra notifications are needed\n  function onApprove(address _owner, address /*_spender*/, uint /*_amount*/) public returns(bool success) {\n    if ( _owner == controller || _owner == address(this) ) {\n      return true;\n    }\n    return transferable;\n  }\n\n  /// @dev setter for the transferable flag\n  function makeTransferable() public onlyController {\n    transferable = true;\n  }\n\n  /// @dev update method for all the dates\n  function updateDates(\n    uint256 _startPresaleTime,\n    uint256 _endPresaleTime,\n    uint256 _startDayOneTime,\n    uint256 _endDayOneTime,\n    uint256 _startTime,\n    uint256 _endTime) public onlyController {\n    startPresaleTime = _startPresaleTime;\n    endPresaleTime = _endPresaleTime;\n    startDayOneTime = _startDayOneTime;\n    endDayOneTime = _endDayOneTime;\n    startTime = _startTime;\n    endTime = _endTime;\n  }\n\n  /// @dev utility function to allow the owner to handle the early sale purchases\n  function handleEarlySaleBuyers(address[] _recipients, uint256[] _ethAmounts) public onlyController {\n    // only run if the sale is not finalised yet\n    require(!finalized);\n    // loop over all recipients, use smallish lists in regards to gas costs (TBD)\n    for (uint256 i = 0; i < _recipients.length; i++) {\n      // use the fixed conversion rate from ETH to DTX\n      uint256 tokensToIssue = TOKENS_PER_ETHER_EARLYSALE.mul(_ethAmounts[i]);\n      // keep a separate counter to have a complete records on DTX issued\n      totalIssuedEarlySale = totalIssuedEarlySale.add(tokensToIssue);\n      // Creates an equal amount of tokens as ether sent. The new tokens are created in the address of the recipient\n      require(tokenContract.generateTokens(_recipients[i], tokensToIssue));\n    }\n  }\n\n  /// @dev utility function to allow the owner to handle private and bitcoin buyers\n  function handleExternalBuyers(\n    address[] _recipients,\n    uint256[] _free,\n    uint256[] _locked,\n    uint256[] _cliffs\n  ) public onlyController {\n    // only run if the sale is not finalised yet\n    require(!finalized, \"The sale should not be finalised\");\n    // loop over all recipients, use smallish lists in regards to gas costs (TBD)\n    for (uint256 i = 0; i < _recipients.length; i++) {\n      // these tokens count for the hard cap limit, but they are guaranteed to succeed so no hardcap check.\n      totalIssued = totalIssued.add(_free[i]);\n      // Creates an equal amount of tokens as ether sent. The new tokens are created in the address of the recipient\n      require(tokenContract.generateTokens(_recipients[i], _free[i]), \"Generating tokens failed\" );\n      // locks the rest until the cliff is reached\n      vestedAllowances[_recipients[i]] = Vesting(_locked[i], _cliffs[i]);\n      totalVested.add(_locked[i]);\n      require(lockedTokens.add(totalVested.add(totalIssued.add(totalIssuedEarlySale))) <= MAX_TOKENS, \"Unable to issue more than the max tokens\");\n    }\n  }\n\n  /// @dev `doPayment()` is an internal function that sends the ether that this\n  ///  contract receives to the `vault` and creates tokens in the address of the\n  ///  `_owner` assuming the TokenSale is still accepting funds\n  function doPayment(address _owner) internal returns(bool success) {\n    // there is no reason to check anything if there is no ETH being sent\n    require(msg.value > 0);\n\n    // if this contract is not the controller, we can fail immediately\n    require(tokenContract.controller() == address(this));\n\n    // check in what period we are\n    bool isPresale = startPresaleTime <= now && endPresaleTime >= now;\n    bool isDayOne = startDayOneTime <= now && endDayOneTime >= now;\n    bool isSale = startTime <= now && endTime >= now;\n\n    // check if we are in one of the sale periods\n    require(isPresale || isDayOne || isSale);\n\n    // check the minimum for the presale phase\n    if (isPresale) {\n      require(msg.value >= 10 ether);\n    }\n\n    // figure out the rate for this period.\n    uint256 tokensPerEther = TOKENS_PER_ETHER;\n    if (isPresale) {\n      tokensPerEther = TOKENS_PER_ETHER_PRESALE;\n    }\n    if (isDayOne) {\n      tokensPerEther = TOKENS_PER_ETHER_DAY_ONE;\n    }\n\n    // calculate the tokens to issue (since the decimals match, we just need to multiply the wei amounts)\n    uint256 tokensToIssue = tokensPerEther.mul(msg.value);\n\n    // have we reached the max contribution\n    require(totalIssued.add(tokensToIssue) <= HARD_CAP);\n    require(tokensToIssue.add(lockedTokens.add(totalVested.add(totalIssued.add(totalIssuedEarlySale)))) <= MAX_TOKENS);\n\n    // Track how much the TokenSale has collected\n    totalIssued = totalIssued.add(tokensToIssue);\n\n    // Send the ether to the vault\n    vaultAddress.transfer(msg.value);\n\n    // Creates an equal amount of tokens as ether sent. The new tokens are created in the `_owner` address\n    require(tokenContract.generateTokens(_owner, tokensToIssue));\n\n    return true;\n  }\n\n  /// @dev Allow the owner of TokenSale to change the controller of the token\n  function changeTokenController(address _newController) public onlyController {\n    tokenContract.changeController(_newController);\n  }\n\n  /// @notice `finalizeSale()` ends the TokenSale. It will generate the platform and team tokens\n  ///  and set the controller to the referral fee contract.\n  /// @dev `finalizeSale()` can only be called after the end of the funding period or if the maximum amount is raised.\n  function finalizeSale() public onlyController {\n    // either the end time is passed, or the hard cap is reached\n    require(now > endTime || totalIssued >= HARD_CAP);\n\n    // we should only do this function once since it generates tokens\n    require(!finalized);\n\n    vestedAllowances[vaultAddress] = Vesting(lockedTokens, now + 3 years);\n\n    // calculate how many tokens are left if we subtract all the issued amounts\n    uint256 leftoverTokens = MAX_TOKENS.sub(lockedTokens).sub(totalIssued).sub(totalIssuedEarlySale).sub(totalVested);\n\n    // generate that left over amount in the vault address\n    require(tokenContract.generateTokens(vaultAddress, leftoverTokens));\n    require(tokenContract.generateTokens(address(this), lockedTokens.add(totalVested)));\n\n    finalized = true;\n  }\n\n  function claimLockedTokens(address _owner) public {\n    require(vestedAllowances[_owner].cliff > 0 && vestedAllowances[_owner].amount > 0);\n    require(now >= vestedAllowances[_owner].cliff);\n    uint256 amount = vestedAllowances[_owner].amount;\n    vestedAllowances[_owner].amount = 0;\n    require(tokenContract.transfer(_owner, amount));\n  }\n\n  /// @notice Pauses the contribution if there is any issue\n  function pauseContribution() public onlyController {\n    paused = true;\n  }\n\n  /// @notice Resumes the contribution\n  function resumeContribution() public onlyController {\n    paused = false;\n  }\n\n  modifier notPaused() {\n    require(!paused);\n    _;\n  }\n}\n",
  "sourcePath": "/Users/roderik/Development/dtx-crowdsale-contracts/contracts/TokenSale.sol",
  "compiler": {
    "name": "solc",
    "version": "0.4.24+commit.e67f0147.Emscripten.clang"
  },
  "schemaVersion": "2.0.1",
  "updatedAt": "2018-08-01T09:47:12.897Z"
}