{
  "contractName": "TokenSale",
  "abi": [
    {
      "constant": true,
      "inputs": [],
      "name": "TOKENS_PER_ETHER_EARLYSALE",
      "outputs": [
        {
          "name": "",
          "type": "uint256"
        }
      ],
      "payable": false,
      "stateMutability": "view",
      "type": "function"
    },
    {
      "constant": true,
      "inputs": [],
      "name": "endPresaleTime",
      "outputs": [
        {
          "name": "",
          "type": "uint256"
        }
      ],
      "payable": false,
      "stateMutability": "view",
      "type": "function"
    },
    {
      "constant": true,
      "inputs": [],
      "name": "endTime",
      "outputs": [
        {
          "name": "",
          "type": "uint256"
        }
      ],
      "payable": false,
      "stateMutability": "view",
      "type": "function"
    },
    {
      "constant": true,
      "inputs": [],
      "name": "HARD_CAP",
      "outputs": [
        {
          "name": "",
          "type": "uint256"
        }
      ],
      "payable": false,
      "stateMutability": "view",
      "type": "function"
    },
    {
      "constant": false,
      "inputs": [
        {
          "name": "_newController",
          "type": "address"
        }
      ],
      "name": "changeController",
      "outputs": [],
      "payable": false,
      "stateMutability": "nonpayable",
      "type": "function"
    },
    {
      "constant": true,
      "inputs": [],
      "name": "vaultAddress",
      "outputs": [
        {
          "name": "",
          "type": "address"
        }
      ],
      "payable": false,
      "stateMutability": "view",
      "type": "function"
    },
    {
      "constant": true,
      "inputs": [],
      "name": "TOKENS_PER_ETHER_PRESALE",
      "outputs": [
        {
          "name": "",
          "type": "uint256"
        }
      ],
      "payable": false,
      "stateMutability": "view",
      "type": "function"
    },
    {
      "constant": true,
      "inputs": [],
      "name": "tokenContract",
      "outputs": [
        {
          "name": "",
          "type": "address"
        }
      ],
      "payable": false,
      "stateMutability": "view",
      "type": "function"
    },
    {
      "constant": true,
      "inputs": [],
      "name": "paused",
      "outputs": [
        {
          "name": "",
          "type": "bool"
        }
      ],
      "payable": false,
      "stateMutability": "view",
      "type": "function"
    },
    {
      "constant": true,
      "inputs": [],
      "name": "totalIssuedEarlySale",
      "outputs": [
        {
          "name": "",
          "type": "uint256"
        }
      ],
      "payable": false,
      "stateMutability": "view",
      "type": "function"
    },
    {
      "constant": true,
      "inputs": [],
      "name": "TOKENS_PER_ETHER",
      "outputs": [
        {
          "name": "",
          "type": "uint256"
        }
      ],
      "payable": false,
      "stateMutability": "view",
      "type": "function"
    },
    {
      "constant": true,
      "inputs": [],
      "name": "startTime",
      "outputs": [
        {
          "name": "",
          "type": "uint256"
        }
      ],
      "payable": false,
      "stateMutability": "view",
      "type": "function"
    },
    {
      "constant": true,
      "inputs": [],
      "name": "transferable",
      "outputs": [
        {
          "name": "",
          "type": "bool"
        }
      ],
      "payable": false,
      "stateMutability": "view",
      "type": "function"
    },
    {
      "constant": true,
      "inputs": [],
      "name": "finalized",
      "outputs": [
        {
          "name": "",
          "type": "bool"
        }
      ],
      "payable": false,
      "stateMutability": "view",
      "type": "function"
    },
    {
      "constant": true,
      "inputs": [],
      "name": "startPresaleTime",
      "outputs": [
        {
          "name": "",
          "type": "uint256"
        }
      ],
      "payable": false,
      "stateMutability": "view",
      "type": "function"
    },
    {
      "constant": true,
      "inputs": [],
      "name": "TOKENS_PER_ETHER_DAY_ONE",
      "outputs": [
        {
          "name": "",
          "type": "uint256"
        }
      ],
      "payable": false,
      "stateMutability": "view",
      "type": "function"
    },
    {
      "constant": true,
      "inputs": [],
      "name": "MAX_TOKENS",
      "outputs": [
        {
          "name": "",
          "type": "uint256"
        }
      ],
      "payable": false,
      "stateMutability": "view",
      "type": "function"
    },
    {
      "constant": true,
      "inputs": [],
      "name": "totalIssued",
      "outputs": [
        {
          "name": "",
          "type": "uint256"
        }
      ],
      "payable": false,
      "stateMutability": "view",
      "type": "function"
    },
    {
      "constant": true,
      "inputs": [],
      "name": "controller",
      "outputs": [
        {
          "name": "",
          "type": "address"
        }
      ],
      "payable": false,
      "stateMutability": "view",
      "type": "function"
    },
    {
      "constant": true,
      "inputs": [],
      "name": "endDayOneTime",
      "outputs": [
        {
          "name": "",
          "type": "uint256"
        }
      ],
      "payable": false,
      "stateMutability": "view",
      "type": "function"
    },
    {
      "constant": true,
      "inputs": [],
      "name": "startDayOneTime",
      "outputs": [
        {
          "name": "",
          "type": "uint256"
        }
      ],
      "payable": false,
      "stateMutability": "view",
      "type": "function"
    },
    {
      "inputs": [
        {
          "name": "_startPresaleTime",
          "type": "uint256"
        },
        {
          "name": "_endPresaleTime",
          "type": "uint256"
        },
        {
          "name": "_startDayOneTime",
          "type": "uint256"
        },
        {
          "name": "_endDayOneTime",
          "type": "uint256"
        },
        {
          "name": "_startTime",
          "type": "uint256"
        },
        {
          "name": "_endTime",
          "type": "uint256"
        },
        {
          "name": "_vaultAddress",
          "type": "address"
        },
        {
          "name": "_tokenAddress",
          "type": "address"
        }
      ],
      "payable": false,
      "stateMutability": "nonpayable",
      "type": "constructor"
    },
    {
      "payable": true,
      "stateMutability": "payable",
      "type": "fallback"
    },
    {
      "constant": false,
      "inputs": [
        {
          "name": "_owner",
          "type": "address"
        }
      ],
      "name": "proxyPayment",
      "outputs": [
        {
          "name": "success",
          "type": "bool"
        }
      ],
      "payable": true,
      "stateMutability": "payable",
      "type": "function"
    },
    {
      "constant": false,
      "inputs": [
        {
          "name": "_from",
          "type": "address"
        },
        {
          "name": "",
          "type": "address"
        },
        {
          "name": "",
          "type": "uint256"
        }
      ],
      "name": "onTransfer",
      "outputs": [
        {
          "name": "success",
          "type": "bool"
        }
      ],
      "payable": false,
      "stateMutability": "nonpayable",
      "type": "function"
    },
    {
      "constant": false,
      "inputs": [
        {
          "name": "_owner",
          "type": "address"
        },
        {
          "name": "",
          "type": "address"
        },
        {
          "name": "",
          "type": "uint256"
        }
      ],
      "name": "onApprove",
      "outputs": [
        {
          "name": "success",
          "type": "bool"
        }
      ],
      "payable": false,
      "stateMutability": "nonpayable",
      "type": "function"
    },
    {
      "constant": false,
      "inputs": [],
      "name": "makeTransferable",
      "outputs": [],
      "payable": false,
      "stateMutability": "nonpayable",
      "type": "function"
    },
    {
      "constant": false,
      "inputs": [
        {
          "name": "_recipients",
          "type": "address[]"
        },
        {
          "name": "_ethAmounts",
          "type": "uint256[]"
        }
      ],
      "name": "handleEarlySaleBuyers",
      "outputs": [],
      "payable": false,
      "stateMutability": "nonpayable",
      "type": "function"
    },
    {
      "constant": false,
      "inputs": [
        {
          "name": "_recipients",
          "type": "address[]"
        },
        {
          "name": "_free",
          "type": "uint256[]"
        },
        {
          "name": "_locked",
          "type": "uint256[]"
        },
        {
          "name": "_cliffs",
          "type": "uint256[]"
        }
      ],
      "name": "handleExternalBuyers",
      "outputs": [],
      "payable": false,
      "stateMutability": "nonpayable",
      "type": "function"
    },
    {
      "constant": false,
      "inputs": [
        {
          "name": "_newController",
          "type": "address"
        }
      ],
      "name": "changeTokenController",
      "outputs": [],
      "payable": false,
      "stateMutability": "nonpayable",
      "type": "function"
    },
    {
      "constant": false,
      "inputs": [],
      "name": "finalizeSale",
      "outputs": [],
      "payable": false,
      "stateMutability": "nonpayable",
      "type": "function"
    },
    {
      "constant": false,
      "inputs": [
        {
          "name": "_owner",
          "type": "address"
        }
      ],
      "name": "claimLockedTokens",
      "outputs": [],
      "payable": false,
      "stateMutability": "nonpayable",
      "type": "function"
    },
    {
      "constant": false,
      "inputs": [],
      "name": "pauseContribution",
      "outputs": [],
      "payable": false,
      "stateMutability": "nonpayable",
      "type": "function"
    },
    {
      "constant": false,
      "inputs": [],
      "name": "resumeContribution",
      "outputs": [],
      "payable": false,
      "stateMutability": "nonpayable",
      "type": "function"
    }
  ],
  "bytecode": "0x606060405234156200001057600080fd5b6040516101008062001302833981016040528080519190602001805191906020018051919060200180519190602001805191906020018051919060200180519190602001805160008054600160a060020a03191633600160a060020a03161790559150504288116200008157600080fd5b4287116200008e57600080fd5b4286116200009b57600080fd5b428511620000a857600080fd5b428411620000b557600080fd5b428311620000c257600080fd5b87871015620000d057600080fd5b85851015620000de57600080fd5b83831015620000ec57600080fd5b84841015620000fa57600080fd5b868610156200010857600080fd5b600188905560028790556003869055600485905560058490556006839055600160a060020a03821615156200013c57600080fd5b600a8054600160a060020a031916600160a060020a0384811691909117909155811615156200016a57600080fd5b60098054600160a060020a03909216600160a060020a03199092169190911790555050600a805460a060020a62ffffff0219169055505050505061114e80620001b46000396000f30060606040526004361061017c5763ffffffff60e060020a6000350416630f98c91a811461019f5780631264299a146101c45780631adadda8146101d75780633197cbb6146101f85780633a03171c1461020b5780633cebb8231461021e578063430bf08a1461023d5780634a3931491461026c5780634b8adcf7146102a857806350d5914a146102bb57806355a373d6146102ce57806358a687ec146102e15780635c975abb146102f457806363036f8614610307578063696fd68c1461031a5780636b4a6ded1461032d57806378e97925146103405780637a38012e146103535780638a426b1b146103e257806392ff0d31146104f1578063b3f05b9714610504578063b681f9f614610517578063c74b1e011461052a578063d6c8976b1461053d578063da682aeb1461026c578063ee4aa3271461055c578063f47c84c51461056f578063f48c305414610582578063f5be319314610596578063f77c4791146105a9578063f942be1c146105bc578063fa848fb0146105cf575b600a5460a060020a900460ff161561019357600080fd5b61019c336105e2565b50005b34156101aa57600080fd5b6101b2610822565b60405190815260200160405180910390f35b34156101cf57600080fd5b6101b2610828565b34156101e257600080fd5b6101f6600160a060020a036004351661082e565b005b341561020357600080fd5b6101b2610946565b341561021657600080fd5b6101b261094c565b341561022957600080fd5b6101f6600160a060020a036004351661095b565b341561024857600080fd5b6102506109a5565b604051600160a060020a03909116815260200160405180910390f35b341561027757600080fd5b610294600160a060020a03600435811690602435166044356109b4565b604051901515815260200160405180910390f35b34156102b357600080fd5b6101f66109fe565b34156102c657600080fd5b6101b2610a3f565b34156102d957600080fd5b610250610a45565b34156102ec57600080fd5b6101f6610a54565b34156102ff57600080fd5b610294610c12565b341561031257600080fd5b6101b2610c22565b341561032557600080fd5b6101f6610c28565b341561033857600080fd5b6101b2610c7e565b341561034b57600080fd5b6101b2610c84565b341561035e57600080fd5b6101f6600460248135818101908301358060208181020160405190810160405280939291908181526020018383602002808284378201915050505050509190803590602001908201803590602001908080602002602001604051908101604052809392919081815260200183836020028082843750949650610c8a95505050505050565b34156103ed57600080fd5b6101f66004602481358181019083013580602081810201604051908101604052809392919081815260200183836020028082843782019150505050505091908035906020019082018035906020019080806020026020016040519081016040528093929190818152602001838360200280828437820191505050505050919080359060200190820180359060200190808060200260200160405190810160405280939291908181526020018383602002808284378201915050505050509190803590602001908201803590602001908080602002602001604051908101604052809392919081815260200183836020028082843750949650610db995505050505050565b34156104fc57600080fd5b610294610f65565b341561050f57600080fd5b610294610f88565b341561052257600080fd5b6101f6610f98565b341561053557600080fd5b6101b2610fd3565b341561054857600080fd5b6101f6600160a060020a0360043516610fd9565b341561056757600080fd5b6101b2611055565b341561057a57600080fd5b6101b261105b565b610294600160a060020a036004351661106a565b34156105a157600080fd5b6101b2611093565b34156105b457600080fd5b610250611099565b34156105c757600080fd5b6101b26110a8565b34156105da57600080fd5b6101b26110ae565b60008080808080348190116105f657600080fd5b600954600160a060020a03308116911663f77c47916000604051602001526040518163ffffffff1660e060020a028152600401602060405180830381600087803b151561064257600080fd5b6102c65a03f1151561065357600080fd5b50505060405180519050600160a060020a031614151561067257600080fd5b426001541115801561068657504260025410155b9450426003541115801561069c57504260045410155b935042600554111580156106b257504260065410155b925084806106bd5750835b806106c55750825b15156106d057600080fd5b84156106eb57678ac7230489e800003410156106eb57600080fd5b610fa0915084156106fc5761177091505b83156107085761113091505b610718823463ffffffff6110b416565b90506a5955e3bb3e743fec00000061073b826007546110ea90919063ffffffff16565b111561074657600080fd5b600754610759908263ffffffff6110ea16565b600755600a54600160a060020a03163480156108fc0290604051600060405180830381858888f19350505050151561079057600080fd5b600954600160a060020a031663827f32c0888360006040516020015260405160e060020a63ffffffff8516028152600160a060020a0390921660048301526024820152604401602060405180830381600087803b15156107ef57600080fd5b6102c65a03f1151561080057600080fd5b50505060405180519050151561081557600080fd5b5060019695505050505050565b61190081565b60025481565b600160a060020a0381166000908152600b6020526040812060010154819011801561086f5750600160a060020a0382166000908152600b6020526040812054115b151561087a57600080fd5b600160a060020a0382166000908152600b60205260409020600101544210156108a257600080fd5b50600160a060020a038082166000908152600b60205260408082208054908390556009549093169163827f32c09185918591516020015260405160e060020a63ffffffff8516028152600160a060020a0390921660048301526024820152604401602060405180830381600087803b151561091c57600080fd5b6102c65a03f1151561092d57600080fd5b50505060405180519050151561094257600080fd5b5050565b60065481565b6a5955e3bb3e743fec00000081565b60005433600160a060020a0390811691161461097657600080fd5b6000805473ffffffffffffffffffffffffffffffffffffffff1916600160a060020a0392909216919091179055565b600a54600160a060020a031681565b600a54600090600160a060020a03858116911614156109d5575060016109f7565b50600a54760100000000000000000000000000000000000000000000900460ff165b9392505050565b60005433600160a060020a03908116911614610a1957600080fd5b600a805474ff0000000000000000000000000000000000000000191660a060020a179055565b61177081565b600954600160a060020a031681565b60008054819033600160a060020a03908116911614610a7257600080fd5b600654421180610a8f57506a5955e3bb3e743fec00000060075410155b1515610a9a57600080fd5b600a5460a860020a900460ff1615610ab157600080fd5b610ade601e610ad26aba1d9a70c21cda81000000606463ffffffff6110f916565b9063ffffffff6110b416565b91506040805190810160409081528382526305a39a804201602080840191909152600a54600160a060020a03166000908152600b9091522081518155602082015160019091015550600854600754610b5a9190610b4e90816aba1d9a70c21cda810000008763ffffffff61111016565b9063ffffffff61111016565b600954600a54919250600160a060020a039081169163827f32c091168360006040516020015260405160e060020a63ffffffff8516028152600160a060020a0390921660048301526024820152604401602060405180830381600087803b1515610bc357600080fd5b6102c65a03f11515610bd457600080fd5b505050604051805190501515610be957600080fd5b5050600a805475ff000000000000000000000000000000000000000000191660a860020a179055565b600a5460a060020a900460ff1681565b60085481565b60005433600160a060020a03908116911614610c4357600080fd5b600a805476ff000000000000000000000000000000000000000000001916760100000000000000000000000000000000000000000000179055565b610fa081565b60055481565b60008054819033600160a060020a03908116911614610ca857600080fd5b600a5460a860020a900460ff1615610cbf57600080fd5b600091505b8351821015610db357610cf5838381518110610cdc57fe5b906020019060200201516119009063ffffffff6110b416565b600854909150610d0b908263ffffffff6110ea16565b600855600954600160a060020a031663827f32c0858481518110610d2b57fe5b906020019060200201518360006040516020015260405160e060020a63ffffffff8516028152600160a060020a0390921660048301526024820152604401602060405180830381600087803b1515610d8257600080fd5b6102c65a03f11515610d9357600080fd5b505050604051805190501515610da857600080fd5b600190910190610cc4565b50505050565b6000805433600160a060020a03908116911614610dd557600080fd5b600a5460a860020a900460ff1615610dec57600080fd5b5060005b8451811015610f5e57610e21848281518110610e0857fe5b906020019060200201516007549063ffffffff6110ea16565b600755600954600160a060020a031663827f32c0868381518110610e4157fe5b90602001906020020151868481518110610e5757fe5b9060200190602002015160006040516020015260405160e060020a63ffffffff8516028152600160a060020a0390921660048301526024820152604401602060405180830381600087803b1515610ead57600080fd5b6102c65a03f11515610ebe57600080fd5b505050604051805190501515610ed357600080fd5b6040805190810160405280848381518110610eea57fe5b906020019060200201518152602001838381518110610f0557fe5b906020019060200201519052600b6000878481518110610f2157fe5b90602001906020020151600160a060020a031681526020810191909152604001600020815181556020820151600191820155919091019050610df0565b5050505050565b600a54760100000000000000000000000000000000000000000000900460ff1681565b600a5460a860020a900460ff1681565b60005433600160a060020a03908116911614610fb357600080fd5b600a805474ff000000000000000000000000000000000000000019169055565b60015481565b60005433600160a060020a03908116911614610ff457600080fd5b600954600160a060020a0316633cebb8238260405160e060020a63ffffffff8416028152600160a060020a039091166004820152602401600060405180830381600087803b151561104457600080fd5b6102c65a03f11515610db357600080fd5b61113081565b6aba1d9a70c21cda8100000081565b600a5460009060a060020a900460ff161561108457600080fd5b61108d826105e2565b92915050565b60075481565b600054600160a060020a031681565b60045481565b60035481565b6000808315156110c757600091506110e3565b508282028284828115156110d757fe5b04146110df57fe5b8091505b5092915050565b6000828201838110156110df57fe5b600080828481151561110757fe5b04949350505050565b60008282111561111c57fe5b509003905600a165627a7a72305820c0aa3138edb27976eea8892758de550d68447ac9ca5cdd053c1119a8068cda470029",
  "source": "pragma solidity ^0.4.15;\n\nimport \"./DTXToken.sol\";\nimport \"./external/SafeMath.sol\";\nimport \"./external/Controlled.sol\";\nimport \"./external/ERC20Token.sol\";\n\n\ncontract TokenSale is TokenController, Controlled {\n\n  using SafeMath for uint256;\n\n  // In UNIX time format - http://www.unixtimestamp.com/\n  uint256 public startPresaleTime;\n  uint256 public endPresaleTime;\n  uint256 public startDayOneTime;\n  uint256 public endDayOneTime;\n  uint256 public startTime;\n  uint256 public endTime;\n\n  // the purchase rates\n  uint256 constant public TOKENS_PER_ETHER_EARLYSALE = 6400;\n  uint256 constant public TOKENS_PER_ETHER_PRESALE = 6000;\n  uint256 constant public TOKENS_PER_ETHER_DAY_ONE = 4400;\n  uint256 constant public TOKENS_PER_ETHER = 4000;\n\n  // max amount of 225 million tokens, in their smallest denomination\n  uint256 constant public MAX_TOKENS = 225000000 * 10**18;\n\n  // hard cap of 108 million tokens, in their smallest denomination\n  uint256 constant public HARD_CAP = 108000000 * 10**18;\n\n  // total amount of tokens issues\n  uint256 public totalIssued;\n\n  // total amount of tokens issues\n  uint256 public totalIssuedEarlySale;\n\n  // the tokencontract for the DataBrokerDAO\n  DTXToken public tokenContract;\n\n  // the funds end up in this address\n  address public vaultAddress;\n\n  // is the token sale paused\n  bool public paused;\n\n  // is the token sale finalized\n  bool public finalized;\n\n  // are the tokens transferable\n  bool public transferable;\n\n  // listing of addresses with allowances\n  mapping(address => Vesting) vestedAllowances;\n\n  struct Vesting {\n    uint256 amount;\n    uint256 cliff;\n  }\n\n  /// @dev the constructor\n  function TokenSale(\n    uint256 _startPresaleTime,\n    uint256 _endPresaleTime,\n    uint256 _startDayOneTime,\n    uint256 _endDayOneTime,\n    uint256 _startTime,\n    uint256 _endTime,\n    address _vaultAddress,\n    address _tokenAddress\n  ) public {\n    // are the dates in the future\n    require(_startPresaleTime > now);\n    require(_endPresaleTime > now);\n    require(_startDayOneTime > now);\n    require(_endDayOneTime > now);\n    require(_startTime > now);\n    require(_endTime > now);\n    // are the end dates after the start dates\n    require(_endPresaleTime >= _startPresaleTime);\n    require(_endDayOneTime >= _startDayOneTime);\n    require(_endTime >= _startTime);\n    // are the phases in the right order\n    require(_startTime >= _endDayOneTime);\n    require(_startDayOneTime >= _endPresaleTime);\n    // dates are correct, set them!\n    startPresaleTime = _startPresaleTime;\n    endPresaleTime = _endPresaleTime;\n    startDayOneTime = _startDayOneTime;\n    endDayOneTime = _endDayOneTime;\n    startTime = _startTime;\n    endTime = _endTime;\n    // make sure the the vault is there\n    require(_vaultAddress != 0x0);\n    vaultAddress = _vaultAddress;\n    // make sure the token is there\n    require(_tokenAddress != 0x0);\n    tokenContract = DTXToken(_tokenAddress);\n    // set some stating flags\n    paused = false;\n    finalized = false;\n    transferable = false;\n  }\n\n  /// @dev The fallback function is called when ether is sent to the contract, it\n  /// simply calls `doPayment()` with the address that sent the ether as the\n  /// `_owner`. Payable is a required solidity modifier for functions to receive\n  /// ether, without this modifier functions will throw if ether is sent to them\n  function () public payable notPaused {\n    doPayment(msg.sender);\n  }\n\n  /// @notice `proxyPayment()` allows the caller to send ether to the TokenSale and\n  /// have the tokens created in an address of their choosing\n  function proxyPayment(address _owner) public payable notPaused returns(bool success) {\n    return doPayment(_owner);\n  }\n\n  /// @notice Notifies the controller about a transfer, for this TokenSale all\n  /// transfers are allowed by default and no extra notifications are needed\n  function onTransfer(address _from, address /*_to*/, uint /*_amount*/) public returns(bool success) {\n    if ( _from == vaultAddress ) {\n      return true;\n    }\n    return transferable;\n  }\n\n  /// @notice Notifies the controller about an approval, for this TokenSale all\n  /// approvals are allowed by default and no extra notifications are needed\n  function onApprove(address _owner, address /*_spender*/, uint /*_amount*/) public returns(bool success) {\n    if ( _owner == vaultAddress ) {\n      return true;\n    }\n    return transferable;\n  }\n\n  /// @dev setter for the transferable flag\n  function makeTransferable() public onlyController {\n    transferable = true;\n  }\n\n  /// @dev utility function to allow the owner to handle the early sale purchases\n  function handleEarlySaleBuyers(address[] _recipients, uint256[] _ethAmounts) public onlyController {\n    // only run if the sale is not finalised yet\n    require(!finalized);\n    // loop over all recipients, use smallish lists in regards to gas costs (TBD)\n    for (uint256 i = 0; i < _recipients.length; i++) {\n      // use the fixed conversion rate from ETH to DTX\n      uint256 tokensToIssue = TOKENS_PER_ETHER_EARLYSALE.mul(_ethAmounts[i]);\n      // keep a separate counter to have a complete records on DTX issued\n      totalIssuedEarlySale = totalIssuedEarlySale.add(tokensToIssue);\n      // Creates an equal amount of tokens as ether sent. The new tokens are created in the address of the recipient\n      require(tokenContract.generateTokens(_recipients[i], tokensToIssue));\n    }\n  }\n\n  /// @dev utility function to allow the owner to handle private and bitcoin buyers\n  function handleExternalBuyers(\n    address[] _recipients,\n    uint256[] _free,\n    uint256[] _locked,\n    uint256[] _cliffs\n  ) public onlyController {\n    // only run if the sale is not finalised yet\n    require(!finalized);\n    // loop over all recipients, use smallish lists in regards to gas costs (TBD)\n    for (uint256 i = 0; i < _recipients.length; i++) {\n      // these tokens count for the hard cap limit, but they are guaranteed to succeed so no hardcap check.\n      totalIssued = totalIssued.add(_free[i]);\n      // Creates an equal amount of tokens as ether sent. The new tokens are created in the address of the recipient\n      require(tokenContract.generateTokens(_recipients[i], _free[i]));\n      // locks the rest until the cliff is reached\n      vestedAllowances[_recipients[i]] = Vesting(_locked[i], _cliffs[i]);\n    }\n  }\n\n  /// @dev `doPayment()` is an internal function that sends the ether that this\n  ///  contract receives to the `vault` and creates tokens in the address of the\n  ///  `_owner` assuming the TokenSale is still accepting funds\n  function doPayment(address _owner) internal returns(bool success) {\n    // there is no reason to check anything if there is no ETH being sent\n    require(msg.value > 0);\n\n    // if this contract is not the controller, we can fail immediately\n    require(tokenContract.controller() == address(this));\n\n    // check in what period we are\n    bool isPresale = startPresaleTime <= now && endPresaleTime >= now;\n    bool isDayOne = startDayOneTime <= now && endDayOneTime >= now;\n    bool isSale = startTime <= now && endTime >= now;\n\n    // check if we are in one of the sale periods\n    require(isPresale || isDayOne || isSale);\n\n    // check the minimum for the presale phase\n    if (isPresale) {\n      require(msg.value >= 10 ether);\n    }\n\n    // figure out the rate for this period.\n    uint256 tokensPerEther = TOKENS_PER_ETHER;\n    if (isPresale) {\n      tokensPerEther = TOKENS_PER_ETHER_PRESALE;\n    }\n    if (isDayOne) {\n      tokensPerEther = TOKENS_PER_ETHER_DAY_ONE;\n    }\n\n    // calculate the tokens to issue (since the decimals match, we just need to multiply the wei amounts)\n    uint256 tokensToIssue = tokensPerEther.mul(msg.value);\n\n    // have we reached the max contribution\n    require(totalIssued.add(tokensToIssue) <= HARD_CAP);\n\n    // Track how much the TokenSale has collected\n    totalIssued = totalIssued.add(tokensToIssue);\n\n    // Send the ether to the vault\n    vaultAddress.transfer(msg.value);\n\n    // Creates an equal amount of tokens as ether sent. The new tokens are created in the `_owner` address\n    require(tokenContract.generateTokens(_owner, tokensToIssue));\n\n    return true;\n  }\n\n  /// @dev Allow the owner of TokenSale to change the controller of the token\n  function changeTokenController(address _newController) public onlyController {\n    tokenContract.changeController(_newController);\n  }\n\n  /// @notice `finalizeSale()` ends the TokenSale. It will generate the platform and team tokens\n  ///  and set the controller to the referral fee contract.\n  /// @dev `finalizeSale()` can only be called after the end of the funding period or if the maximum amount is raised.\n  function finalizeSale() public onlyController {\n    // either the end time is passed, or the hard cap is reached\n    require(now > endTime || totalIssued >= HARD_CAP);\n\n    // we should only do this function once since it generates tokens\n    require(!finalized);\n\n    // calculate the amount of tokens we need to lock up\n    uint256 lockedTokens = MAX_TOKENS.div(100).mul(30);\n\n    vestedAllowances[vaultAddress] = Vesting(lockedTokens, now + 3 years);\n\n    // calculate how many tokens are left if we subtract all the issued amounts\n    uint256 leftoverTokens = MAX_TOKENS.sub(lockedTokens).sub(totalIssued).sub(totalIssuedEarlySale);\n\n    // generate that left over amount in the vault address\n    require(tokenContract.generateTokens(vaultAddress, leftoverTokens));\n\n    finalized = true;\n  }\n\n  function claimLockedTokens(address _owner) public {\n    require(vestedAllowances[_owner].cliff > 0 && vestedAllowances[_owner].amount > 0);\n    require(now >= vestedAllowances[_owner].cliff);\n    uint256 amount = vestedAllowances[_owner].amount;\n    vestedAllowances[_owner].amount = 0;\n    require(tokenContract.generateTokens(_owner, amount));\n  }\n\n  /// @notice Pauses the contribution if there is any issue\n  function pauseContribution() public onlyController {\n    paused = true;\n  }\n\n  /// @notice Resumes the contribution\n  function resumeContribution() public onlyController {\n    paused = false;\n  }\n\n  modifier notPaused() {\n    require(!paused);\n    _;\n  }\n}\n",
  "sourcePath": "/Users/roderik/Development/dtx-crowdsale-contracts/contracts/TokenSale.sol",
  "compiler": {
    "name": "solc",
    "version": "0.4.20+commit.3155dd80.Emscripten.clang"
  },
  "schemaVersion": "2.0.0",
  "updatedAt": "2018-03-01T16:32:20.145Z"
}