{
  "contractName": "Validatable",
  "abi": [
    {
      "constant": true,
      "inputs": [],
      "name": "validatorCount",
      "outputs": [
        {
          "name": "",
          "type": "uint256"
        }
      ],
      "payable": false,
      "stateMutability": "view",
      "type": "function"
    },
    {
      "constant": false,
      "inputs": [],
      "name": "renounceOwnership",
      "outputs": [],
      "payable": false,
      "stateMutability": "nonpayable",
      "type": "function"
    },
    {
      "constant": true,
      "inputs": [],
      "name": "owner",
      "outputs": [
        {
          "name": "",
          "type": "address"
        }
      ],
      "payable": false,
      "stateMutability": "view",
      "type": "function"
    },
    {
      "constant": true,
      "inputs": [],
      "name": "requiredValidators",
      "outputs": [
        {
          "name": "",
          "type": "uint8"
        }
      ],
      "payable": false,
      "stateMutability": "view",
      "type": "function"
    },
    {
      "constant": false,
      "inputs": [
        {
          "name": "_newOwner",
          "type": "address"
        }
      ],
      "name": "transferOwnership",
      "outputs": [],
      "payable": false,
      "stateMutability": "nonpayable",
      "type": "function"
    },
    {
      "constant": true,
      "inputs": [
        {
          "name": "",
          "type": "address"
        }
      ],
      "name": "validators",
      "outputs": [
        {
          "name": "",
          "type": "bool"
        }
      ],
      "payable": false,
      "stateMutability": "view",
      "type": "function"
    },
    {
      "inputs": [
        {
          "name": "_requiredValidators",
          "type": "uint8"
        },
        {
          "name": "_initialValidators",
          "type": "address[]"
        }
      ],
      "payable": false,
      "stateMutability": "nonpayable",
      "type": "constructor"
    },
    {
      "anonymous": false,
      "inputs": [
        {
          "indexed": false,
          "name": "validator",
          "type": "address"
        }
      ],
      "name": "ValidatorAdded",
      "type": "event"
    },
    {
      "anonymous": false,
      "inputs": [
        {
          "indexed": false,
          "name": "validator",
          "type": "address"
        }
      ],
      "name": "ValidatorRemoved",
      "type": "event"
    },
    {
      "anonymous": false,
      "inputs": [
        {
          "indexed": true,
          "name": "previousOwner",
          "type": "address"
        }
      ],
      "name": "OwnershipRenounced",
      "type": "event"
    },
    {
      "anonymous": false,
      "inputs": [
        {
          "indexed": true,
          "name": "previousOwner",
          "type": "address"
        },
        {
          "indexed": true,
          "name": "newOwner",
          "type": "address"
        }
      ],
      "name": "OwnershipTransferred",
      "type": "event"
    },
    {
      "constant": false,
      "inputs": [
        {
          "name": "_validator",
          "type": "address"
        }
      ],
      "name": "addValidator",
      "outputs": [],
      "payable": false,
      "stateMutability": "nonpayable",
      "type": "function"
    },
    {
      "constant": false,
      "inputs": [
        {
          "name": "_validator",
          "type": "address"
        }
      ],
      "name": "removeValidator",
      "outputs": [],
      "payable": false,
      "stateMutability": "nonpayable",
      "type": "function"
    },
    {
      "constant": false,
      "inputs": [
        {
          "name": "_requiredValidators",
          "type": "uint8"
        }
      ],
      "name": "setRequiredValidators",
      "outputs": [],
      "payable": false,
      "stateMutability": "nonpayable",
      "type": "function"
    },
    {
      "constant": true,
      "inputs": [
        {
          "name": "_validator",
          "type": "address"
        }
      ],
      "name": "isValidator",
      "outputs": [
        {
          "name": "",
          "type": "bool"
        }
      ],
      "payable": false,
      "stateMutability": "view",
      "type": "function"
    }
  ],
  "bytecode": "0x60806040526000805460a060020a60ff021916815560015534801561002357600080fd5b50604051610b5b380380610b5b833981016040528051602082015160008054600160a060020a031916331781559192019060ff831615156100c557604080517f08c379a000000000000000000000000000000000000000000000000000000000815260206004820152601f60248201527f5f726571756972656456616c696461746f72732063616e6e6f74206265203000604482015290519081900360640190fd5b815160ff8416111561018457604080517f08c379a000000000000000000000000000000000000000000000000000000000815260206004820152604e60248201527f596f75206e656564206174206c6561737420616e20657175616c20616d6f756e60448201527f74206f66205f696e697469616c56616c696461746f7273206173205f7265717560648201527f6972656456616c696461746f7273000000000000000000000000000000000000608482015290519081900360a40190fd5b5060005b81518110156102b9576101c082828151811015156101a257fe5b906020019060200201516102d6640100000000026401000000009004565b1580156101ef575081516000908390839081106101d957fe5b90602001906020020151600160a060020a031614155b151561028257604080517f08c379a000000000000000000000000000000000000000000000000000000000815260206004820152602560248201527f4e6f206475706c69636174652076616c696461746f7273206f7220656d70747960448201527f206f6e6573000000000000000000000000000000000000000000000000000000606482015290519081900360840190fd5b6102b1828281518110151561029357fe5b906020019060200201516102f9640100000000026401000000009004565b600101610188565b6102cb8364010000000061039c810204565b5051600155506104a7565b600160a060020a031660009081526002602052604090205460ff16151560011490565b600054600160a060020a0316331461031057600080fd5b600160a060020a03811660009081526002602052604090205460ff1615156001141561033857fe5b600160a060020a038116600081815260026020908152604091829020805460ff19166001908117909155805481019055815192835290517fe366c1c0452ed8eec96861e9e54141ebff23c9ec89fe27b996b45f5ec38849879281900390910190a150565b600054600160a060020a031633146103b357600080fd5b60015460ff8216111561047357604080517f08c379a000000000000000000000000000000000000000000000000000000000815260206004820152604d60248201527f796f752063616e6e6f7420696e6372656173652074686520726571756972656460448201527f20616d6f756e74206f662076616c696461746f72732061626f7665207468652060648201527f6578697369746e67206c69737400000000000000000000000000000000000000608482015290519081900360a40190fd5b6000805460ff909216740100000000000000000000000000000000000000000260a060020a60ff0219909216919091179055565b6106a5806104b66000396000f3006080604052600436106100a35763ffffffff7c01000000000000000000000000000000000000000000000000000000006000350416630f43a67781146100a857806340a141ff146100cf5780634d238c8e146100f2578063715018a6146101135780638da5cb5b1461012857806397c875dd14610159578063d2ddc50914610184578063f2fde38b1461019f578063fa52c7d8146101c0578063facd743b146101f5575b600080fd5b3480156100b457600080fd5b506100bd610216565b60408051918252519081900360200190f35b3480156100db57600080fd5b506100f0600160a060020a036004351661021c565b005b3480156100fe57600080fd5b506100f0600160a060020a0360043516610349565b34801561011f57600080fd5b506100f06103ec565b34801561013457600080fd5b5061013d610458565b60408051600160a060020a039092168252519081900360200190f35b34801561016557600080fd5b5061016e610467565b6040805160ff9092168252519081900360200190f35b34801561019057600080fd5b506100f060ff60043516610488565b3480156101ab57600080fd5b506100f0600160a060020a03600435166105a1565b3480156101cc57600080fd5b506101e1600160a060020a03600435166105c4565b604080519115158252519081900360200190f35b34801561020157600080fd5b506101e1600160a060020a03600435166105d9565b60015481565b600054600160a060020a0316331461023357600080fd5b6000546001547401000000000000000000000000000000000000000090910460ff16106102e757604080517f08c379a000000000000000000000000000000000000000000000000000000000815260206004820152603660248201527f796f752063616e6e6f742072656d6f76652076616c696461746f72732062656c60448201527f6f7720746865207265717569726564206e756d62657200000000000000000000606482015290519081900360840190fd5b600160a060020a038116600081815260026020908152604091829020805460ff1916905560018054600019019055815192835290517fe1434e25d6611e0db941968fdc97811c982ac1602e951637d206f5fdda9dd8f19281900390910190a150565b600054600160a060020a0316331461036057600080fd5b600160a060020a03811660009081526002602052604090205460ff1615156001141561038857fe5b600160a060020a038116600081815260026020908152604091829020805460ff19166001908117909155805481019055815192835290517fe366c1c0452ed8eec96861e9e54141ebff23c9ec89fe27b996b45f5ec38849879281900390910190a150565b600054600160a060020a0316331461040357600080fd5b60008054604051600160a060020a03909116917ff8df31144d9c2f0f6b59d69b8b98abd5459d07f2742c4df920b25aae33c6482091a26000805473ffffffffffffffffffffffffffffffffffffffff19169055565b600054600160a060020a031681565b60005474010000000000000000000000000000000000000000900460ff1681565b600054600160a060020a0316331461049f57600080fd5b60015460ff8216111561055f57604080517f08c379a000000000000000000000000000000000000000000000000000000000815260206004820152604d60248201527f796f752063616e6e6f7420696e6372656173652074686520726571756972656460448201527f20616d6f756e74206f662076616c696461746f72732061626f7665207468652060648201527f6578697369746e67206c69737400000000000000000000000000000000000000608482015290519081900360a40190fd5b6000805460ff909216740100000000000000000000000000000000000000000274ff000000000000000000000000000000000000000019909216919091179055565b600054600160a060020a031633146105b857600080fd5b6105c1816105fc565b50565b60026020526000908152604090205460ff1681565b600160a060020a031660009081526002602052604090205460ff16151560011490565b600160a060020a038116151561061157600080fd5b60008054604051600160a060020a03808516939216917f8be0079c531659141344cd1fd0a4f28419497f9722a3daafe3b4186f6b6457e091a36000805473ffffffffffffffffffffffffffffffffffffffff1916600160a060020a03929092169190911790555600a165627a7a723058209f63a03d714ac3d6d785bdadcff433f1823b8293b066415403a39600693293700029",
  "source": "pragma solidity ^0.4.24;\n\nimport \"openzeppelin-solidity/contracts/ownership/Ownable.sol\";\n\n\ncontract Validatable is Ownable {\n\n  // Event created on validator gets added\n  event ValidatorAdded (address validator);\n  event ValidatorRemoved (address validator);\n  uint8 public requiredValidators = 0;\n  uint256 public validatorCount = 0;\n\n  mapping (address=>bool) public validators;\n\n  constructor(uint8 _requiredValidators,address[] _initialValidators) public {\n    require(_requiredValidators != 0, \"_requiredValidators cannot be 0\");\n    require(_initialValidators.length >= _requiredValidators, \"You need at least an equal amount of _initialValidators as _requiredValidators\");\n    for (uint i = 0; i < _initialValidators.length; i++) {\n      require(!isValidator(_initialValidators[i]) && _initialValidators[i] != address(0), \"No duplicate validators or empty ones\");\n      addValidator(_initialValidators[i]);\n    }\n    setRequiredValidators(_requiredValidators);\n    validatorCount = _initialValidators.length;\n  }\n\n  function addValidator(address _validator)  public onlyOwner {\n    assert(validators[_validator] != true);\n    validators[_validator] = true;\n    validatorCount++;\n    emit ValidatorAdded(_validator);\n  }\n\n  function removeValidator(address _validator) public onlyOwner {\n    require(validatorCount > requiredValidators, \"you cannot remove validators below the required number\");\n    validators[_validator] = false;\n    validatorCount--;\n    emit ValidatorRemoved(_validator);\n  }\n\n  function setRequiredValidators(uint8 _requiredValidators) public onlyOwner {\n    require(validatorCount >= _requiredValidators, \"you cannot increase the required amount of validators above the exisitng list\");\n    requiredValidators = _requiredValidators;\n  }\n\n  function isValidator(address _validator) public view returns(bool) {\n    return (validators[_validator] == true);\n  }\n\n  modifier onlyValidator(address _validator) {\n    assert(validators[_validator] == true);\n    _;\n  }\n}\n",
  "sourcePath": "/Users/roderik/Development/dtx-crowdsale-contracts/contracts/bridge/Validatable.sol",
  "compiler": {
    "name": "solc",
    "version": "0.4.24+commit.e67f0147.Emscripten.clang"
  },
  "schemaVersion": "2.0.1",
  "updatedAt": "2018-08-01T09:45:21.899Z"
}